:100000000C9452150C9483150C9483150C94831541
:100010000C9483150C9483150C9483150C94831500
:100020000C9483150C9483150C9483150C948315F0
:100030000C9483150C9483150C9483150C948315E0
:100040000C9483150C9419940C9483150C948315BB
:100050000C9483150C9483150C94E3720C94637ABE
:100060000C9483150C949C3D0C9483150C9483156F
:100070000C9483150C9483150C9483150C948315A0
:100080000C9483150C9483150C9483150C94831590
:100090000C9483150C9483150C9483150C94831580
:1000A0000C9483150C9483150C9483150C94831570
:1000B0000C9483150C9483150C9483150C94831560
:1000C0000C9483150C9483150C9483150C94831550
:1000D0000C9483150C9483150C9483150C94831540
:1000E0000C94831593739873C273C773A773B37318
:1000F0007D73DD77E077CF77D377D9771778E4779B
:10010000E877EE77F277F677FC770078047817785F
:100110000A780E7812787F798479897993799D7934
:10012000167AA779AF79B779C179CB79D579E4799E
:10013000EE79167AF879027A0C7A084AD73B3BCEE8
:10014000016E84BCBFFDC12F3D6C74319ABD5683D6
:100150003DDA3D00C77F11BED9E4BB4C3E916BAA8E
:10016000AABE000000803F05A84CCDB2D44EB938DD
:1001700036A9020C50B9918688083CA6AAAA2ABEC4
:10018000000000803F004E414E494E495459494EAF
:1001900046CDCCCC3D0AD7233C17B7D13877CC2BF2
:1001A000329595E6241FB14F0A000020410000C897
:1001B0004200401C4620BCBE4CCA1B0E5AAEC59D18
:1001C00074434F4D4D554E49434154494F4E0044A1
:1001D000525952554E004552524F525300494E46C5
:1001E0004F004543484F0047322F47332062616438
:1001F00020706172616D65746572730A00536C657D
:1002000065702E2E2E00526573756D696E672070B5
:1002100072696E74004444322072656164792E0004
:10022000436C69636B20746F20726573756D652E06
:100230002E2E004E6F206D6F76652E00256973009F
:1002400025696D20256973002569682025696D2061
:1002500025697300256964202569682025696D205A
:10026000256973002569792025696420256968203E
:1002700025696D20256973005072696E7420746958
:100280006D653A200050726F746563746564205028
:10029000696E0A00452569202573004444322072A6
:1002A000656164792E00E201DD01D601CF01C10153
:1002B0006F66660044454255473A004B494C4C45F1
:1002C000442E20004D3131332053006F6B004865C0
:1002D0006174696E6720646F6E652E0020573A0066
:1002E0004525692025730044443220726561647994
:1002F0002E0042656420646F6E652E0020573A0020
:100300004265642048656174696E672E004444321A
:10031000204F66662E00454D455247454E43595F76
:1003200050415253455200434153455F4C49474861
:10033000545F4252494748544E45535300544F4727
:10034000474C455F4C494748545300534F46545718
:100350004152455F504F574552004255494C445F0A
:1003600050455243454E54004C4556454C494E4726
:100370005F44415441005A5F50524F42450041553D
:10038000544F4C4556454C005052494E545F4A4FCD
:10039000420050524F4752455353004155544F521B
:1003A00045504F52545F54454D5000564F4C554D9B
:1003B000455452494300454550524F4D0053455214
:1003C00049414C5F584F4E5F584F46460046495290
:1003D0004D574152455F4E414D453A4D61726C69F2
:1003E0006E20312E312E38202847697468756229B5
:1003F00020534F555243455F434F44455F55524C40
:100400003A68747470733A2F2F6769746875622E36
:10041000636F6D2F4D61726C696E4669726D7761A5
:1004200072652F4D61726C696E2050524F544F436C
:100430004F4C5F56455253494F4E3A312E30204D66
:10044000414348494E455F545950453A444432204F
:1004500045585452554445525F434F554E543A32D5
:1004600020555549443A63656465326132662D34DE
:100470003161322D343734382D396231322D6335C4
:10048000356336326633363766660A002F2F200012
:100490007A5F6D696E3A2000795F6D696E3A20006F
:1004A000785F6D696E3A20005265706F7274696E84
:1004B0006720656E6473746F7020737461747573F4
:1004C0000A004D31343520533C696E6465783E2016
:1004D0006F7574206F662072616E67652028302DFD
:1004E00031290A0053657474696E6720547261760D
:1004F000656C20416363656C65726174696F6E3A07
:10050000200053657474696E67205265747261636C
:100510007420416363656C65726174696F6E3A2023
:100520000053657474696E67205072696E7420415F
:100530006363656C65726174696F6E3A2000536520
:100540007474696E67205072696E7420616E6420E5
:1005500054726176656C20416363656C6572617489
:10056000696F6E3A2000205A002059005800202060
:100570004D61783A2000205A002059005800202070
:100580004D696E3A20004F6E20004F666600536F33
:10059000667420656E6473746F70733A2000486FE0
:1005A00074656E64206F6666736574733A0000014B
:1005B00036372603FF3C3D380EFF2E303E12FFFF3C
:1005C0000C0809FFFFFF1A1C18FFFF24221EFFFF63
:1005D00008440AFF4307FF45FFFFFFFFFFFF4B648F
:1005E000200023646566696E6520204445464155B8
:1005F0004C545F004B69200023646566696E65207A
:100600002044454641554C545F004B702000236404
:100610006566696E65202044454641554C545F002F
:10062000504944204175746F74756E652066696E1B
:100630006973686564212050757420746865206C46
:10064000617374204B702C204B6920616E64204BC9
:100650006420636F6E7374616E74732066726F6D65
:100660002062656C6F7720696E746F20436F6E66D1
:10067000696775726174696F6E2E680A005049442B
:10068000204175746F74756E65206661696C656470
:10069000212074696D656F75740A00544845524D88
:1006A000414C2052554E4157415900546865726D76
:1006B000616C2052756E617761790048656174697B
:1006C0006E67206661696C65640048656174696E77
:1006D00067206661696C6564005049442041757407
:1006E0006F74756E65206661696C65642120546560
:1006F0006D706572617475726520746F6F206869C2
:1007000067680A00204B643A2000204B693A2000B9
:10071000204B703A20000A20436C61737369632098
:10072000504944200A002054753A2000204B753A65
:100730002000206D61783A2000206D696E3A20001B
:1007400020643A200020626961733A20004F666697
:1007500073657473206170706C69656400457272B2
:100760003A20546F6F206661722100546F6F2066CB
:1007700061722066726F6D207265666572656E6368
:100780006520706F696E740A00454550524F4D20C8
:1007900064697361626C65640A004E6F2063617303
:1007A00065206C696768740A00556E6B6E6F776EB2
:1007B00020636F6D6D616E643A202200656E717505
:1007C000657565696E672022004C696E65204E75FF
:1007D0006D626572206973206E6F74204C61737452
:1007E000204C696E65204E756D6265722B312C2030
:1007F0004C617374204C696E653A20004B494C4C37
:1008000045442E200053544F505045442E20005054
:1008100072696E7465722073746F707065642064A1
:10082000756520746F206572726F72732E20466931
:100830007820746865206572726F7220616E642022
:10084000757365204D39393920746F207265737462
:100850006172742E202854656D70657261747572B2
:10086000652069732072657365742E20536574204A
:100870006974206166746572207265737461727444
:10088000696E67290A004E6F20436865636B737554
:100890006D2077697468206C696E65206E756D6275
:1008A00065722C204C617374204C696E653A20008F
:1008B000636865636B73756D206D69736D617463D7
:1008C000682C204C617374204C696E653A20004D91
:1008D0003131300020496E76616C6964206578742E
:1008E00072756465722000000020C20000C0C00064
:1008F000000000CD4C344300004E4300004843202C
:100900005A3A0020593A0020436F756E7420583AC5
:100910000020453A00205A3A0020593A00583A003F
:100920003A004361703A0020643A0020693A00209E
:10093000703A0020643A0020693A0020703A00437F
:10094000290A0061626C656420286D696E207465F7
:100950006D702000436F6C642065787472756465F7
:10096000732061726520004B494C4C45442E200099
:10097000202D20496E76616C6964206578747275EB
:10098000646572206E756D62657220210A001FFF1A
:10099000FFFFFFFFFF600000000001FF40000000BC
:1009A0000000FF8000000000007F83CF00000C30BB
:1009B0003F87FF80000C301F867980000C000F8C71
:1009C00030C7838C30E78C30CFC7CC31F38C30DC30
:1009D000ECEC33B98C30D86C6C33198C30D06C0C97
:1009E00033198C30D86C0C33198C30DC6C0E3B19FD
:1009F0008C30CF7C079F198C30C77C038F19400047
:100A00000000000002600000000000061FFFFFFF62
:100A1000FFFFF82020506C616E6E6572427566664D
:100A2000657242797465733A2000204672656520CC
:100A30004D656D6F72793A2000436F6D70696C651A
:100A4000643A204F637420203620323031380A0057
:100A5000207C20417574686F723A20286E6F6E6535
:100A60002C2064656661756C7420636F6E666967BF
:100A7000290A00323031372D31322D3235203132D2
:100A80003A303000204C6173742055706461746595
:100A9000643A2000312E312E380A004D61726C69A3
:100AA0006E0020536F6674776172652052657365BE
:100AB000740A00205761746368646F67205265731D
:100AC00065740A002042726F776E206F7574205231
:100AD000657365740A002045787465726E616C20D8
:100AE00052657365740A00506F77657255700A001D
:100AF00073746172740A00456E6473746F7073204E
:100B0000256320256320256320256300205A3A00B1
:100B100020593A0020583A00656E6473746F707300
:100B2000206869743A2000507265686561742050CD
:100B30004C4120416C6C00507265686561742050B6
:100B40004C4120456E6420453200507265686561F5
:100B50007420504C412032005072656865617420E9
:100B6000504C4120456E64204531005072656865E7
:100B7000617420504C412042656400507265686584
:100B8000617420504C412031005072657061726573
:100B900000507265686561742041425320416C6C5D
:100BA00000507265686561742041425320456E644F
:100BB00020453200507265686561742041425320BF
:100BC0003200507265686561742041425320456E61
:100BD000642045310050726568656174204142535C
:100BE000204265640050726568656174204142531B
:100BF00020310050726570617265004D34323800EA
:100C00005072656865617420504C4100436F6F6C91
:100C1000646F776E0050726568656174204142535D
:100C20000044697361626C652073746570706572ED
:100C300073004D38340053657420686F6D65206F04
:100C4000666673657473004175746F20686F6D65B7
:100C500000473238004D6F76652061786973004D2A
:100C600061696E004D6F76652058004D6F76652086
:100C700059004D6F7665205A004578747275646529
:100C8000723200457874727564657231004D6F760A
:100C90006520302E316D6D004D6F766520316D6DA4
:100CA000004D6F76652031306D6D004D6F7665209B
:100CB00061786973004578747275646572004D6F70
:100CC0007665205A004D6F76652059004D6F766528
:100CD00020580000060900FE0701920321207FFF33
:100CE00007FF07FF000000060000010707060200DB
:100CF00080808080800080030202060105A0A0059C
:100D000007070600005050F850F850500507070636
:100D100000002078A07028F020050707060000C01A
:100D2000C810204098180507070600006090A040F2
:100D3000A89068020303060104C040800307070669
:100D400001002040808080402003070706010080CA
:100D500040202020408005050506000120A870A83D
:100D6000200505050600012020F8202002030306C7
:100D700002FFC04080050101060003F802020206DE
:100D80000200C0C0050505060001081020408005CE
:100D900007070600007088888888887003070706A0
:100DA000010040C040404040E005070706000070D9
:100DB0008808708080F8050707060000F8102010EA
:100DC0000808F005070706000010305090F81010D2
:100DD000050707060000F880F00808887005070777
:100DE000060000708080F088887005070706000004
:100DF000F8081020202020050707060000708888CA
:100E000070888870050707060000708888780808D1
:100E100070020505060200C0C000C0C0020606063A
:100E200002FFC0C000C04080040707060000102079
:100E30004080402010050303060002F800F8040774
:100E400007060100804020102040800507070600AB
:100E50000070880810200020050707060000708831
:100E60000868A8A870050707060000708888F88839
:100E70008888050707060000F08888F08888F00554
:100E800007070600007088808080887005070706C5
:100E90000000F08888888888F0050707060000F8B9
:100EA0008080F08080F8050707060000F88080F059
:100EB000808080050707060000708880B8888870E9
:100EC000050707060000888888F8888888010707D2
:100ED0000602008080808080808005070706000071
:100EE000381010101090600507070600008890A0C9
:100EF000C0A0908805070706000080808080808061
:100F0000F805070706000088D8A88888888805079C
:100F1000070600008888C8A8988888050707060083
:100F20000070888888888870050707060000F088A8
:100F300088F080808005070706000070888888A8F0
:100F40009068050707060000F08888F0A0908805E3
:100F50000707060000788080700808F0050707067C
:100F60000000F82020202020200507070600008828
:100F70008888888888700507070600008888888820
:100F80008850200507070600008888888888A850B0
:100F90000507070600008888502050888805070745
:100FA00006000088888850202020050707060000DA
:100FB000F80810204080F8030707060100E0808051
:100FC000808080E0050505060001804020100803B0
:100FD0000707060100E02020202020E0050303068B
:100FE0000004205088050101060000F802020206F4
:100FF0000205804005050506000070087888780520
:1010000007070600008080B0C88888F0050505063F
:1010100000007080808870050707060000080868D7
:10102000988888780505050600007088F8807005A6
:1010300007070600003048E040404040050606062D
:1010400000FF708888780870050707060000808018
:10105000B0C8888888010707060200800080808069
:1010600080800308080601FF200020202020A040E7
:10107000040707060000808090A0C0A09003070727
:10108000060100C04040404040E005050506000064
:10109000D0A8A8A8A8050505060000B0C8888888BB
:1010A000050505060000708888887005060606009C
:1010B000FFF08888F080800506060600FF788888A3
:1010C000780808050505060000B0C8808080050581
:1010D0000506000070807008F00407070600004055
:1010E00040E04040403005050506000088888898AB
:1010F0006805050506000088888850200505050656
:1011000000008888A8A85005050506000088502022
:1011100050880506060600FF88888878087005054F
:1011200005060000F8102040F8030707060100201C
:1011300040408040402001070706020080808080F8
:1011400080808003070706010080404020404080E7
:1011500005020206000268900000000600004578C3
:101160007472756465723200457874727564657264
:1011700031004578747275646572004D6F76652034
:101180005A004D6F76652059004D6F7665205800E6
:101190005072657061726500526573746F7265207C
:1011A0006661696C7361666500526574726163742F
:1011B0000046696C616D656E74004D6F74696F6E89
:1011C0000054656D7065726174757265004D61697A
:1011D0006E00507265686561742041425320636FF0
:1011E0006E66005072656865617420504C412063E2
:1011F0006F6E66005049442D44005049442D440010
:101200005049442D49005049442D49005049442D2E
:1012100050005049442D500020082046616374005E
:1012200020082046616374002008204D617800206A
:1012300008204D6178002008204D617800200820AA
:101240004D696E002008204D696E002008204D6910
:101250006E004F6666004F6E20004175746F7465B6
:101260006D700046616E2073706565640046616E46
:101270002073706565640042656400426564004ED9
:101280006F7A7A6C652032004E6F7A7A6C65203204
:10129000004E6F7A7A6C652031004E6F7A7A6C65F9
:1012A000203100436F6E74726F6C004265640042BF
:1012B0006564004E6F7A7A6C65004E6F7A7A6C6561
:1012C0000046616E2073706565640046616E207330
:1012D000706565640054656D7065726174757265E2
:1012E000005654726176206D696E005654726176B4
:1012F000206D696E005654726176206D696E0056DD
:101300006D696E00566D696E00566D696E00566DA2
:10131000617820453200566D617820453200566D67
:10132000617820453200566D617820453100566D58
:10133000617820453100566D617820453100566D49
:101340006178204500566D6178204500566D6178C2
:10135000204500566D6178205A00566D6178205AFC
:1013600000566D6178205A00566D617820590056FC
:101370006D6178205900566D6178205900566D6175
:1013800078205800566D6178205800566D6178209D
:1013900058004D6F74696F6E00416D617820453261
:1013A00000416D617820453200416D617820453201
:1013B00000416D617820453100416D6178204531F3
:1013C00000416D617820453100416D617820450014
:1013D000416D6178204500416D6178204500416D87
:1013E0006178205A00416D6178205A00416D617822
:1013F000205A00416D6178205900416D6178205973
:1014000000416D6178205900416D6178205800419C
:101410006D6178205800416D6178205800412D742D
:10142000726176656C00412D74726176656C004165
:101430002D7265747261637400412D7265747261FE
:10144000637400416363656C00416363656C004DC8
:101450006F74696F6E0056652D6A65726B00566514
:101460002D6A65726B0056652D6A65726B00567A3F
:101470002D6A65726B00567A2D6A65726B0056791B
:101480002D6A65726B0056792D6A65726B0056790C
:101490002D6A65726B0056782D6A65726B005678FE
:1014A0002D6A65726B0056782D6A65726B004D6F00
:1014B00074696F6E00453273746570732F6D6D00C3
:1014C000453273746570732F6D6D004531737465AB
:1014D00070732F6D6D00453173746570732F6D6D72
:1014E000004573746570732F6D6D0045737465707E
:1014F000732F6D6D005A73746570732F6D6D005A84
:1015000073746570732F6D6D005973746570732FEC
:101510006D6D005973746570732F6D6D0058737421
:101520006570732F6D6D005873746570732F6D6DDA
:10153000004D6F74696F6E00486F6D6520257325CF
:101540007325732066697273740020666972737400
:101550000A005A0059005800486F6D652000656305
:10156000686F3A0000004842000048420000804096
:10157000000000004572726F723A0020204D323038
:10158000392053004175746F2D5265747261637414
:101590003A20533D3020746F2064697361626C653A
:1015A0002C203120746F20696E74657270726574BE
:1015B00020452D6F6E6C79206D6F76657320617399
:1015C00020726574726163742F7265636F766572E1
:1015D0000A0020460020570020204D32303820538A
:1015E000005265636F7665723A20533C6C656E6796
:1015F00074683E20463C756E6974732F6D3E0A0018
:10160000205A0020460020570020204D323037203D
:101610005300526574726163743A20533C6C656E7A
:101620006774683E20463C756E6974732F6D3E206A
:101630005A3C6C6966743E0A002044002049002030
:10164000204D333034205000204400204900202019
:101650004D333031205000204400204900205000FC
:1016600020204D33303120450050494420736574AB
:1016700074696E67733A0A002046002042002048D1
:101680000020204D3134352053004D61746572695E
:10169000616C2068656174757020706172616D6540
:1016A000746572733A0A0020590020580020204DBA
:1016B000323138205400486F74656E64206F66665E
:1016C000736574733A0A00205A0020590020204D97
:1016D000323036205800486F6D65206F666673653E
:1016E000743A0A00204500205A0020590020580072
:1016F00020420020540020204D323035205300413C
:101700006476616E6365643A20533C6D696E5F6612
:10171000656564726174653E20543C6D696E5F74EA
:10172000726176656C5F66656564726174653E20A2
:10173000423C6D696E5F7365676D656E745F746959
:101740006D655F75733E20583C6D61785F78795F99
:101750006A65726B3E205A3C6D61785F7A5F6A659C
:10176000726B3E20453C6D61785F655F6A65726BA8
:101770003E0A0020540020520020204D32303420F8
:101780005000416363656C65726174696F6E2028F7
:10179000756E6974732F7332293A20503C707269E8
:1017A0006E745F616363656C3E20523C7265747257
:1017B0006163745F616363656C3E20543C74726165
:1017C00076656C5F616363656C3E0A0020450020AE
:1017D000204D323031205400205A00205900202062
:1017E0004D3230312058004D6178696D756D204162
:1017F0006363656C65726174696F6E2028756E69CC
:1018000074732F7332293A0A0020450020204D328C
:101810003033205400205A0020590020204D32300F
:10182000332058004D6178696D756D20666565647B
:1018300072617465732028756E6974732F73293A09
:101840000A0020450020204D3932205400205A0043
:1018500020590020204D3932205800537465707390
:101860002070657220756E69743A0A0020204D322E
:1018700030302044300A0020204D323030205431A6
:1018800020440020204D3230302044002044697331
:1018900061626C65640A0046696C616D656E7420F6
:1018A00073657474696E67733A0020204D31343962
:1018B0002043203B20556E69747320696E20436578
:1018C0006C736975730A0020204732312020202074
:1018D0003B20556E69747320696E206D6D0A00623D
:1018E00065640A002C2073797374656D2073746FBE
:1018F0007070656421204865617465725F49443A7F
:10190000200048656174696E67206661696C656472
:101910000048656174696E67206661696C65640082
:1019200048656174696E67206661696C656400482A
:10193000656174696E67206661696C656400303941
:10194000780080397300C0396E00303A6A00B03ACE
:101950006400203B5F00903B5A00D03B5500703C38
:101960005000A03C4B00003D4600F03D3700303EAB
:101970003200803E2D00A03E2800D03E2300003FD4
:101980001E00203F1900403F1100703F0C005448DA
:1019900045524D414C2052554E41574159005468D3
:1019A00065726D616C2052756E6177617900457268
:1019B000723A204D494E54454D5020424544004511
:1019C00072723A204D494E54454D50004D494E5487
:1019D000454D502074726967676572656400457291
:1019E000723A204D415854454D50204245440045DF
:1019F00072723A204D415854454D50004D41585453
:101A0000454D502074726967676572656400202FC8
:101A1000002040002042403A0020403A00000021CF
:101A200000240027002A002D0030003300010100AF
:101A300000040107010A0100002200250028002BF4
:101A4000002E003100340002010000050108010BE6
:101A500001000020002300260029002C002F003266
:101A60000000010000030106010901050505050745
:101A70000508080808020202020A0A080804040409
:101A80000401010101010101010303030303030335
:101A900003040707070C0C0C0C0C0C0C0C020202C4
:101AA0000206060606060606060B0B0B0B0B0B0BB7
:101AB0000B01021020200808102040102040800256
:101AC0000102010804020101020408102040808084
:101AD0004020100804020180040201804020100808
:101AE00004020108040201010204081020408001E0
:101AF0000204081020408000000A0B02090C0D0EA1
:101B000008070304010000000000000000000000BE
:101B100000000000000000000000000000000000C5
:101B20000000001211100000000000000000000082
:101B30000000000000000000000000000020746FA2
:101B40006F206C6F6E6720657874727573696F6E45
:101B50002070726576656E7465640A0020636F6C30
:101B60006420657874727573696F6E207072657623
:101B7000656E7465640A0053746570732F6D6D0033
:101B80004A65726B00416363656C65726174696F6D
:101B90006E0056656C6F6369747900436F6E747282
:101BA0006F6C0046696C2E204469612E203200461D
:101BB000696C2E204469612E20320046696C2E200B
:101BC0004469612E20310046696C2E204469612EE3
:101BD00020310046696C2E204469612E0046696CF4
:101BE0002E204469612E004F6666004F6E2000452E
:101BF00020696E206D6D3300436F6E74726F6C00E0
:101C00005320556E5265742056005320556E526510
:101C1000742056005320556E526574205600556E40
:101C2000526574205600556E526574205600556EEC
:101C30005265742056005320556E526574206D6DA8
:101C4000005320556E526574206D6D00556E5265BF
:101C500074206D6D00556E526574206D6D00486F77
:101C600070206D6D00486F70206D6D00526574724C
:101C70006163742020560052657472616374202081
:101C80005600526574726163742020560053776168
:101C9000702052652E6D6D00537761702052652E55
:101CA0006D6D0052657472616374206D6D005265D4
:101CB0007472616374206D6D004F6666004F6E2014
:101CC000004175746F526574722E00436F6E7472AA
:101CD0006F6C0024F4D43050C38E20C2A24017820F
:101CE0008B7011127A910D816CD90AA861E108C735
:101CF000586607615143061E4B5D05C145A7041A8E
:101D0000411104093D9803713931034036DB026506
:101D1000339102D4305402802E1D02632CEE0175E3
:101D20002AC501B028A001102781018F2564012B4D
:101D3000244B01E0223401AC211F018D200D0180D4
:101D40001FFC00841EED00971DDF00B81CD200E6CA
:101D50001BC600201BBC00641AB200B219A8000AFE
:101D600019A0006A189900D117910040178B00B58F
:101D700016840031167E00B31579003A157300C73A
:101D8000146F0058146A00EE136600881363002570
:101D9000135E00C7125B006C12570015125400C18D
:101DA00011510070114F0021114B00D61049008DC8
:101DB0001047004610440002104200C00F4000804F
:101DC0000F3E00420F3C00060F3B00CB0E38009345
:101DD0000E37005C0E3500270E3400F30D3200C1C3
:101DE0000D3100900D3000600D2E00320D2D0005DC
:101DF0000D2C00D90C2B00AE0C2900850C29005CA1
:101E00000C2700350C27000E0C2600E80B2400C41C
:101E10000B2400A00B23007D0B23005A0B2100395B
:101E20000B2100180B2000F80A1F00D90A1E00BB66
:101E30000A1E009D0A1D00800A1D00630A1C00473F
:101E40000A1B002C0A1B00110A1A00F7091A00DDF0
:101E5000091900C4091900AB091900920917007B80
:101E6000091800630917004C0916003609160020EE
:101E70000916000A091500F5081500E0081400CC41
:101E8000081400B8081400A4081400900813007D7A
:101E90000812006B0813005808120046081200349C
:101EA000081100230811001208110001081100F0A8
:101EB000071000E0071000D0071000C0071000B0A6
:101EC000070F00A107100091070E0083070F007491
:101ED000070F0065070E0057070E0049070E003B6D
:101EE000070D002E070E0020070D0013070D00063A
:101EF000070D00F9060C00ED060D00E0060C00D4FD
:101F0000060C00C8060C00BC060C00B0060C00A4B1
:101F1000060B0099060C008D060B0082060B00775D
:101F2000060B006C060B0061060A0057060B004CFE
:101F3000060A0042060A0038060A002E060A002495
:101F4000060A001A060A001006090007060A00FD24
:101F5000050900F4050900EB050900E2050900D9AF
:101F6000050900D0050900C7050900BE050900B52F
:101F7000050800AD050800A50509009C05080094AA
:101F80000508008C050800840508007C050800741D
:101F90000508006C050700650508005D050700568B
:101FA0000508004E050700470507004005080038F2
:101FB000050700310507002A050700230507001C57
:101FC000050600160507000F0507000805060002B4
:101FD000050700FB040600F5040700EE040600E810
:101FE000040600E2040700DB040600D5040600CF67
:101FF000040600C9040600C3040600BD040600B7B9
:10200000040600B1040500AC040600A6040600A006
:102010000405009B04060095040500900406008A50
:1020200004050085040500800406007A0405007597
:10203000040500700405006B0405006604050061DA
:102040000405005C04050057040500520405004D1A
:1020500004050048040500430405003E0404003A5A
:1020600004050035040500300404002C0405002795
:10207000040400230405001E0404001A04040016CE
:10208000040500110404000D040400090405000403
:1020900004040000040400FC030400F8030400F43A
:1020A000030400F0030400EC030400E8030400E46C
:1020B000030400E0030400DC030400D8030400D49C
:1020C000030400D0030400CC030400C8030300C5CC
:1020D00003030024F404D9201BC40C5C0E9804C430
:1020E000095F0265077101F405F900FB04B30048BC
:1020F000048700C10369005803550003034500BE6F
:10210000023A008402310053022A00290225000409
:10211000022000E4011C00C8011900AF011700985B
:1021200001140084011300710110006101100051BD
:10213000010E0043010D0036010B002B010B0020A6
:10214000010B00150109000C01090003010800FB47
:10215000000800F3000800EB000700E4000600DEC2
:10216000000600D8000600D2000600CC000500C71B
:10217000000500C2000500BD000400B9000400B560
:10218000000400B1000400AD000400A9000400A593
:10219000000300A20003009F0004009B00030098BE
:1021A0000003009500020093000300900003008DDF
:1021B0000002008B000300880002008600020084F9
:1021C000000300810002007F0002007D0002007B0E
:1021D000000200790002007700010076000200741E
:1021E00000020072000100710002006F0002006D29
:1021F0000001006C0002006A000100690002006733
:102200000001006600010065000100640002006238
:1022100000010061000100600001005F0002005D3C
:102220000001005C0001005B0001005A0001005940
:102230000001005800010057000100560001005540
:10224000000100540001005300000053000100523F
:1022500000010051000100500001004F0001004E3C
:102260000000004E0001004D0001004C0001004B39
:102270000000004B0001004A000100490001004835
:102280000000004800010047000100460000004631
:10229000000100450000004500010044000100432A
:1022A0000000004300010042000000420001004124
:1022B00000000041000100400001003F0000003F1D
:1022C0000001003E0000003E0001003D0000003D16
:1022D0000001003C0000003C0000003C0001003B0D
:1022E0000000003B0001003A0000003A0001003904
:1022F00000000039000100380000003800000038FC
:1023000000010037000000370001003600000036F1
:1023100000000036000100350000003500000035E7
:1023200000010034000000340000003400010033DC
:1023300000000033000000330001003200000032D2
:1023400000000032000100310000003100000031C7
:102350000001003000000030000000300001002FBC
:102360000000002F0000002F0000002F0001002EB1
:102370000000002E0000002E0001002D0000002DA6
:102380000000002D0000002D0001002C0000002C9A
:102390000000002C0000002C0001002B0000002B8E
:1023A0000000002B0000002B0001002A0000002A82
:1023B0000000002A0000002A000100290000002976
:1023C0000000002900000029000000290001002869
:1023D000000000280000002800000028000000285D
:1023E0000001002700000027000000270000002750
:1023F0000000002700010026000000260000002643
:102400000000002600000026000100250000002535
:102410000000002500000025000000250000002528
:10242000000100240000002400000024000000241B
:10243000000000240001002300000023000000230E
:102440000000002300000023000000230000002300
:1024500000010022000000220000002200000022F3
:1024600000000022000000220001002100000021E5
:1024700000000021000000210000002100000021D8
:1024800000000021000100200000002000000020CA
:1024900000000020000000200000002000000020BC
:1024A000000000200001001F0000001F0000001FAE
:1024B0000000001F0000001F0000001F0000001FA0
:1024C0000001001E0000001E0000001E0000001E93
:1024D0000000001000C90210012C0140012201700F
:1024E000011801B0010E01F00104015002FA00B020
:1024F00002F0003003E600D003DC009004D200704C
:1025000005C800A006BE000008B400B009AA00D0AB
:102510000BA000600E960060118C00001582002058
:10252000197800C01D6E00A0226400B0275A0090E8
:102530002C500000314600E0343C0010383200904E
:102540003A2800603C1E00A03D1400803E0A002096
:102550003F000000060900FE000000000001090025
:1025600008FE000005080806000040F0C8888898AA
:102570007810050808060000C0F88888888888F860
:102580000505050600012030F83020050808060082
:10259000002070F820202020E00509090600FF2017
:1025A00070A8A8B8888870200509090600FFE08097
:1025B000C0B0A8283028280509090600FFF8A88817
:1025C00088888888A8F8050A0A0600FE205050501E
:1025D0005088A8A8887003030306000340A0405A4F
:1025E0000059005800092000000000000000000011
:1025F000000000007FFFE00000000000000000007D
:102600000000007000E0000000000000000000007A
:10261000000061F860000000000000000000000001
:102620000041F82000000000000000000000000051
:1026300040F020000000000000000000000000400A
:1026400060200000000000000000000000005801B1
:10265000A07F80003FC0000000004104005C63A038
:10266000FBC00079E0000000002082005EF7A0F3CC
:10267000C00076E0000000002082005EF7A0EBC002
:10268000007EE0000000004104005C63A07B80004D
:102690003DC0000000008208005801A07B80003B84
:1026A000C000000001041000406020FBC00077E083
:1026B0000000000104100040F020FBC00070E000AA
:1026C00000000082080041F820FFC0007FE0000009
:1026D000000041040061F8603F00001F800000001E
:1026E000000000007000E01E00000F00000000016C
:1026F000FFFF807FFFE00C0000060000000001FFEC
:10270000FF8000000000000000000000000000004A
:10271000007FFFE00000000000000000000000005B
:102720007000E000000000000000000000000063F6
:102730000C60000000000000000000000000470ED8
:10274000200000000000000000000000004F0F20EB
:102750000000000000000000000000005F0FA0006B
:1027600000000000000000000000005E07A07F8065
:10277000003FC000000000410400406020FBC0009A
:1027800079E00000000020820040F020F3C00076D5
:10279000E00000000020820040F020EBC0007EE05E
:1027A000000000004104004060207B80003DC0002C
:1027B0000000008208005E07A07B80003BC0000094
:1027C00000010410005F0FA0FBC00077E0000000D4
:1027D000010410004F0F20FBC00070E0000000005B
:1027E000820800470E20FFC0007FE000000000418B
:1027F0000400630C603F00001F8000000000000028
:10280000007000E01E00000F0000000001FFFF80CC
:102810007FFFE00C0000060000000001FFFF8000C9
:102820000000526573656E643A20006F6B0020747F
:102830006F6F206C6F6E6720657874727573696F47
:102840006E2070726576656E7465640A0020636F31
:102850006C6420657874727573696F6E2070726530
:1028600076656E7465640A00627573793A207061EA
:102870007573656420666F7220696E7075740A00E6
:10288000627573793A2070617573656420666F7242
:1028900020757365720A00627573793A2070726FE1
:1028A00063657373696E670A004B494C4C45442E4F
:1028B00020004B494C4C206361757365642062793C
:1028C000204B494C4C20627574746F6E2F70696E8A
:1028D0000A004B494C4C45442E20004B494C4C209F
:1028E00063617573656420627920746F6F206D7504
:1028F000636820696E6163746976652074696D65CB
:10290000202D2063757272656E7420636F6D6D612A
:102910006E643A2000436F6E74726F6C0050726583
:10292000706172650054756E6500496E666F207344
:10293000637265656E00466C6F77203200466C6F7F
:1029400077203200466C6F77203100466C6F77201D
:102950003100466C6F7700466C6F770046616E20E1
:1029600073706565640046616E2073706565640010
:1029700042656400426564004E6F7A7A6C6520326D
:10298000004E6F7A7A6C652032004E6F7A7A6C65F1
:102990002031004E6F7A7A6C652031005370656586
:1029A00064005370656564004D61696E00506C652C
:1029B000617365207265736574005052494E5445C9
:1029C000522048414C544544005072696E746572FF
:1029D0002068616C7465642E206B696C6C282920FA
:1029E00063616C6C6564210A00000020C20000C0B5
:1029F000C0000000005761726E696E673A20486F30
:102A00006D696E672042756D702044697669736FD9
:102A100072203C20310A000202040000A0400000A5
:102A2000A04000000040CD4C5C4300005443000037
:102A30004843FFFFFF4163746976652045787472EF
:102A4000756465723A200048617264636F646564FE
:102A50002044656661756C742053657474696E6793
:102A600073204C6F616465640A00E8030000E803AA
:102A70000000640000001027000000007A440000FD
:102A80007A44000040400000C8410000C841C9B677
:102A90001F4348112143F9BA9F45DC1C5444CD3CE7
:102AA000D24458BA11241FBECFEFD1E2DEBFCDBF52
:102AB00000E00CBF13E0A0E0B2E0EEEFF3E901E0CC
:102AC0000BBF02C007900D92AC38B107D9F72FE0C9
:102AD000ACE8B3E001C01D92A43DB207E1F715E1F7
:102AE000C2E5D5E100E006C021970109802FFE0173
:102AF0000E94A9C9C135D10780E00807A9F70E9443
:102B000079B30C94FDC90C9400002F923F924F9220
:102B10005F926F927F928F929F92AF92BF92CF926D
:102B2000DF92EF92FF920F931F93CF93DF93CDB776
:102B3000DEB7CA57D1090FB6F894DEBF0FBECDBFBE
:102B400081E090E090939E0F80939D0F80915E04B2
:102B50008D3409F4B5C6843511F40C94E22C873415
:102B600011F00C94112D80915C0490915D048A30D9
:102B7000910509F456C57CF4843091053CF482300B
:102B80009105BCF597FF2EC00C942B2D049709F4EA
:102B900002C50C942B2D8A35910509F41CC64CF402
:102BA0008B30910509F44EC54C9709F451C50C942E
:102BB0002B2D8B35910509F412C68C35910511F03A
:102BC0000C942B2D0E9489775DE9252E52E0352E3D
:102BD00060ECC62E6FE0D62EE12CF12C00E010E068
:102BE0001C8E3EC68091700281110C94322D0C9483
:102BF0002B2D20917002222311F40C942B2D11E027
:102C0000029709F010E00E944C3582E50E940F35D2
:102C1000882309F42AC10E94AD346B017C014090E5
:102C2000F9065090FA066090FB067090FC06209121
:102C3000FD063091FE064091FF06509100072C8F53
:102C40003D8F4E8F5F8F8091E9069091EA06A091AB
:102C5000EB06B091EC0688A399A3AAA3BBA320918D
:102C6000ED063091EE064091EF065091F0062CA74C
:102C70003DA74EA75FA720E030E0A901C701B6013C
:102C80000E94A1C2882309F46CC4A301920168A127
:102C900079A18AA19BA10E94A1C281110DC02C8D96
:102CA0003D8D4E8D5F8D6CA57DA58EA59FA50E9447
:102CB000A1C2882309F455C420E030E0A901C7016E
:102CC000B6010E94A1C2881F8827881F181309C057
:102CD00080E090E0A0E8BFE38CAB9DABAEABBFABB8
:102CE00008C020E030E040E85FEB2CAB3DAB4EABE2
:102CF0005FABA301920168A179A18AA19BA10E9467
:102D0000A1C668A779A78AA79BA72C8D3D8D4E8D5C
:102D10005F8D6CA57DA58EA59FA50E94A1C668AB01
:102D200079AB8AAB9BAB28A539A54AA55BA5CA019F
:102D3000B9010E9406C34B015C0128A939A94AA91F
:102D40005BA9CA01B9010E9406C39B01AC01C50180
:102D5000B4010E94A2C60E940DC96CA37DA38EA3DC
:102D60009FA320E030E040E05FE30E9406C34B01F8
:102D70005C01A7019601C701B6010E9406C36B0161
:102D80007C01A5019401C501B4010E9406C39B0109
:102D9000AC01C701B6010E94A1C60E940DC99B01EA
:102DA000AC016CA97DA98EA99FA90E9406C34B0105
:102DB0005C0128A139A14AA15BA1C301B2010E9413
:102DC000A2C620E030E040E05FE30E9406C36B0152
:102DD0007C0168A979A98AA99BA990582CA13DA139
:102DE0004EA15FA10E947EC79B01AC01C501B40149
:102DF0000E9406C39B01AC01C701B6010E94A2C696
:102E0000A30192010E94A1C66B017C012CA53DA5E6
:102E10004EA55FA56C8D7D8D8E8D9F8D0E94A2C667
:102E200020E030E040E05FE30E9406C32B013C015C
:102E30002CA13DA14EA15FA168A579A58AA59BA55E
:102E40000E947EC79B01AC01C501B4010E9406C36C
:102E50009B01AC01C301B2010E94A2C62C8D3D8D25
:102E60004E8D5F8D0E94A1C614C089E40E940F356B
:102E7000882329F00E94AD346B017C0103C0C12C72
:102E8000D12C76018AE40E940F358823D9F00E9464
:102E9000AD346CA77DA78EA79FA720E030E0A901E5
:102EA000C701B6010E94A1C281111AC020E030E022
:102EB000A9016CA57DA58EA59FA50E94A1C2811127
:102EC0000FC04FC320E030E0A901C701B6010E9446
:102ED000A1C2882309F445C31CA61DA61EA61FA6D1
:102EE000D701C601B0588C8F9D8FAE8FBF8F2CA598
:102EF0003DA54EA55FA5505828A339A34AA35BA3BF
:102F00009C01AD01BC01CD010E9406C34B015C01D7
:102F100028A139A14AA15BA1CA01B9010E9406C337
:102F20009B01AC01C501B4010E94A2C60E940DC95B
:102F300028966CAF7DAF8EAF9FAF28978091F90632
:102F40009091FA06A091FB06B091FC068CA39DA37C
:102F5000AEA3BFA3A7019601BC01CD010E94A2C6EA
:102F60006CAB7DAB8EAB9FAB2091FD063091FE0626
:102F70004091FF065091000728AB39AB4AAB5BABE1
:102F80002CA53DA54EA55FA568A979A98AA99BA9ED
:102F90000E94A2C668AF79AF8AAF9BAF8091E90665
:102FA0009091EA06A091EB06B091EC068CAF9DAF34
:102FB000AEAFBFAF2CA93DA94EA95FA9BC01CD0101
:102FC0000E94A1C66B017C012091ED063091EE06B6
:102FD0004091EF065091F00624962CAF3DAF4EAFD6
:102FE0005FAF249728AD39AD4AAD5BAD24966CAD8B
:102FF0007DAD8EAD9FAD24970E94A1C64B015C01B3
:103000008091010790910207A0910307B0910407F6
:1030100060968CAF9DAFAEAFBFAF60979C01AD0126
:103020006091F1067091F2068091F3069091F4069A
:103030000E94A1C668A779A78AA79BA72091F50639
:103040003091F6064091F7065091F8062C962CAF79
:103050003DAF4EAF5FAF2C9780910507909106076B
:10306000A0910707B091080764968CAF9DAFAEAFF3
:10307000BFAF6497A70196016C8D7D8D8E8D9F8D5E
:103080000E9406C32B013C01A501940168A179A10E
:103090008AA19BA10E9406C39B01AC01C301B2019E
:1030A0000E94A2C62B013C01A50194016C8D7D8D6F
:1030B0008E8D9F8D0E9406C34B015C01A701960176
:1030C00068A179A18AA19BA10E9406C39B01AC01C2
:1030D000C501B4010E94A1C6A30192010E9415C7B7
:1030E0006B017C0120E030E0A9010E94A1C287FFB2
:1030F0000AC02BED3FE049EC50E4C701B6010E9445
:10310000A2C66B017C01112351F02BED3FE049EC8D
:1031100050E4C701B6010E94A1C66B017C0120E00A
:1031200030E0A901C701B6010E94A1C2811122C0ED
:103130002CAD3DAD4EAD5FAD6CA17DA18EA19FA12B
:103140000E94A1C2811116C024962CAD3DAD4EAD9A
:103150005FAD249768A979A98AA99BA90E94A1C2F9
:10316000811108C0EBEDCE2EEFE0DE2EE9ECEE2E65
:10317000E0E4FE2E28962CAD3DAD4EAD5FAD289718
:10318000C701B6010E9406C39B01AC010E9406C3A1
:103190004B015C0128A539A54AA55BA5CA01B90167
:1031A0000E9406C39B01AC01C501B4010E94A2C6E6
:1031B0000E940DC94B015C012FE632E143E85AE35E
:1031C0000E94A1C287FDC9C1C501B4010E9417C8F0
:1031D0000E94EBC71B01672B19F422242394312C86
:1031E000B10180E090E00E94A5C24B015C019B010F
:1031F000AC01C701B6010E947EC76CA37DA38EA35C
:103200009FA3A501940168A579A58AA59BA50E9405
:103210007EC728966CAF7DAF8EAF9FAF2897649620
:103220002CAD3DAD4EAD5FAD64972C966CAD7DADD4
:103230008EAD9FAD2C970E94A1C6A50194010E945E
:103240007EC72C966CAF7DAF8EAF9FAF2C972CA115
:103250003DA14EA15FA1CA01B9010E9406C320E0B1
:1032600030E040E05FE30E9406C39B01AC0160E0F8
:1032700070E080E89FE30E94A1C66CAF7DAF8EAF87
:103280009FAF60962CAD3DAD4EAD5FAD6097298789
:103290003A874B875C8764968CAD9DADAEADBFAD74
:1032A00064978D879E87AF87B88B60919B027091E2
:1032B0009C02072E000C880B990B0E94A7C220913C
:1032C00028023091290240912A0250912B020E943B
:1032D00006C32AE037ED43E25CE30E9406C36E8B2F
:1032E0007F8B888F998F0E94577A9B01AC0128535E
:1032F0003F4F4F4F5F4F24962CAF3DAF4EAF5FAF68
:1033000024974C8C5D8C6E8C7F8C41E050E059ABE7
:1033100048AB59E158A7A8A9B9A9A215B30509F462
:103320000BC10E94D1750E94577ADC01CB01249613
:103330002CAD3DAD4EAD5FAD2497821B930BA40B1E
:10334000B50BB7FD10C00E94577A9B01AC01285302
:103350003F4F4F4F5F4F24962CAF3DAF4EAF5FAF07
:1033600024970E9433A438A5315038A73323E9F1BC
:103370002CAD3DAD4EAD5FAD68A179A18AA19BA1F9
:103380000E9406C36B017C012CA13DA14EA15FA14F
:10339000B201C3010E9406C3A70196010E94A2C602
:1033A0007B018C012CAD3DAD4EAD5FADB201C301D3
:1033B0000E9406C34B015C012CA13DA14EA15FA15F
:1033C00068A179A18AA19BA10E9406C39B01AC01BF
:1033D000C501B4010E94A1C62B013C01C701D8015F
:1033E00088A399A3AAA3BBA351C048A959A9BA010C
:1033F00080E090E00E94A5C22CA13DA14EA15FA15A
:103400000E9406C34B015C010E947BC76B017C01DB
:10341000C501B4010E9403C94B015C01A7019601DB
:103420006C8D7D8D8E8D9F8D0E9406C32B013C017E
:10343000A50194016CA57DA58EA59FA50E9406C33C
:103440009B01AC01C301B2010E94A2C62B013C0149
:10345000A50194016C8D7D8D8E8D9F8D0E9406C37C
:103460004B015C01A70196016CA57DA58EA59FA5CA
:103470000E9406C39B01AC01C501B4010E94A1C614
:1034800068A379A38AA39BA359E158A79201A3013A
:103490006CA97DA98EA99FA90E94A2C669837A837F
:1034A0008B839C8328A139A14AA15BA168AD79AD2A
:1034B0008AAD9BAD0E94A2C66D837E838F83988761
:1034C00028962CAD3DAD4EAD5FAD289769857A85C8
:1034D0008B859C850E94A2C669877A878B879C878B
:1034E0002C962CAD3DAD4EAD5FAD2C976D857E8598
:1034F0008F8598890E94A2C66D877E878F87988B5B
:10350000CE0101960E94E4A6E090AD088E010A5E0D
:103510001F4F9E01235F3F4FAE01475F5F4FBE01CC
:103520006B5F7F4FCE0101960E946A8B88A999A993
:10353000019699AB88ABEFCEE090AD088E010A5EA4
:103540001F4F25EF36E041EF56E06DEE76E089EE55
:1035500096E00E946A8B0E940F380E9419380C94E2
:103560002B2DE4E7F5E184918F010F5F1F4F882336
:1035700021F00E942438F801F6CFE7EEF1E08491C3
:103580008F010F5F1F4F882311F40C942B2D0E9485
:103590002438F801F4CF80E50E940F35882329F004
:1035A0000E946D346B017C0103C0C12CD12C7601CB
:1035B00083E50E940F35882361F00E94AD3420E03E
:1035C00030E04AE754E40E9406C30E94EBC76B0157
:1035D0007C010E94897780912D02811105C060E0F5
:1035E0008DEF91E00E94C44D0E9419388091A40F84
:1035F0009091A50FA091A60FB091A70FC80ED91E4C
:10360000EA1EFB1E0E94577ADC01CB018C199D0932
:10361000AE09BF09B7FD02C00C942B2D0E9433A444
:10362000F1CF83E50E940F35882319F00E949E3464
:1036300003C083E50E94E034682F81E00E944D368C
:103640000C942B2D60E080E00E944D360C942B2DC5
:103650000E948977F090AD0821E040E050E0BA0187
:1036600080E00E9442AE8091280290912902A091B0
:103670002A02B0912B028093A1039093A203A093FE
:10368000A303B093A40380919B0290919C0290931A
:10369000A00380939F0384E690E090939C02809324
:1036A0009B020E94193881E08093770788E50E9489
:1036B000E034D82E89E50E94E034082F8AE50E9484
:1036C000E034E82ED11005C0011105C011E0182723
:1036D00005C0011102C010E001C0182F0E9443363E
:1036E000111104C0D11002C00023D1F180E090E09C
:1036F000A0EAB0E48093F1069093F206A093F3065B
:10370000B093F4069C01AD0160910107709102072E
:1037100080910307909104070E94A1C287FF0DC00A
:1037200019821A821B821C82AE014F5F5F4F6DEFC0
:1037300076E089EF96E00E944164111105C0D11036
:1037400003C0011107C00CC080E090E00E9441AFAF
:103750001123B9F381E090E00E9441AF111102C042
:10376000EE2021F082E090E00E9441AF0E94F03311
:1037700080917607809377078091A1039091A203AF
:10378000A091A303B091A4038093280290932902EF
:10379000A0932A02B0932B0280919F039091A003E3
:1037A00090939C0280939B020E941938B1E0BF1550
:1037B00020F48F2D0E94E03B07C021E040E050E064
:1037C000BA018F2D0E9442AE83E080932C020E94AA
:1037D000CE3C0C942B2D10929E030C942B2D81E04B
:1037E00080939E030C942B2D0E94AD344B015C0101
:1037F0000330110559F0F701E750F14F2081318175
:10380000428153810E94A1C64B015C01F701E75040
:10381000F94F2081318142815381C501B4010E9459
:10382000A1C62B013C012DEB37E346E855EB0E9486
:10383000C8C887FD1DC02DEB37E346E855E3C3013B
:10384000B2010E94A1C218169CF00F5F1F4FF4E056
:10385000CF0ED11C24E0E20EF11C0430110541F121
:10386000F10181911F010E940F35882371F3BCCFB4
:103870000330110559F48092050790920607A09233
:103880000707B0920807F1E0FC8FDFCFA301920198
:10389000D6016D917D918D919C910E94A2C6F601F9
:1038A0006083718382839383C8010E946A33CDCF82
:1038B0003C8D31110E94AB330E94CE3C0C942B2DD9
:1038C00080915C0490915D048937910509F444C7A7
:1038D0000CF08EC08836910509F410C30CF056C068
:1038E0008C34910509F4F0C28CF58231910509F40C
:1038F0002FC5FCF497FF02C00C942B2D823091054C
:103900000CF427C1419711F00C942B2D60E083E358
:1039100092E00E94C44D5F988A989FB7F894809176
:1039200008018E7F809308019FBF129847980C94DE
:103930002B2D8A32910509F483C28B34910509F449
:10394000BFC24F9711F00C942B2D99C1833591056F
:1039500009F4F9C47CF48135910509F4D9C40CF05B
:10396000EEC48D34910511F00C942B2D0E945962F8
:103970000C942B2D8535910509F421C50CF4E8C470
:103980008C35910509F436C50C942B2D80379105A3
:1039900009F4BBC39CF48C36910509F4B2C33CF422
:1039A0008A36910509F47DC40CF401C49FC48E3697
:1039B000910509F405C30CF43EC415C38537910580
:1039C00009F408C674F48237910509F4ABC50CF408
:1039D000A4C38337910511F00C942B2DEDECF3E08B
:1039E000A7C58737910509F44AC60CF409C6ADC6C8
:1039F0008C3D910511F40C9473270CF047C08C3C5E
:103A0000910509F4ECC70CF58E3B910509F42FC420
:103A100074F48139910509F4A5C68B39910509F42F
:103A2000E3C38C38910511F00C942B2DA2C3893C73
:103A3000910509F476C78B3C910509F4A5C7883C2C
:103A4000910511F00C942B2D07C7803D910511F4C1
:103A50000C942D2654F48E3C910511F40C94C4253D
:103A600014F40C9459250C94E925833D910511F427
:103A70000C9486268A3D910511F40C946627813DAD
:103A8000910511F00C942B2D0C947726833641E090
:103A9000940711F40C94B52C5CF58D32A1E09A07D3
:103AA00011F40C94F32794F4823E910511F40C94D4
:103AB000C6278C32E1E09E0711F40C94F0278D3D6F
:103AC000910511F00C942B2D0C9480278F32F1E08E
:103AD0009F0711F40C94F92714F40C94F627803303
:103AE000914011F00C942B2D0E947B380C942B2DBF
:103AF000843F41E0940711F40C94882CA4F48A3993
:103B0000A1E09A0709F405C38C3AB1E09B0711F4D0
:103B10000C94AA2B8039914011F00C942B2D0E940B
:103B200089770C942B2D863FF1E09F0711F40C94BC
:103B3000A72C14F40C94A12C873F31E0930711F4C7
:103B40000C94AA2C873E934011F40C94CE2C0C9428
:103B50002B2DA0905A04B0905B0480E50E940F3595
:103B6000882359F00E946D346B017C0111E0672BB2
:103B7000682B692B31F410E004C010E0C12CD12C6B
:103B8000760183E50E940F35882351F10E94AD3400
:103B900020E030E04AE754E40E9406C30E94EBC7ED
:103BA0006B017C0111111EC0672B682B692BD1F4AE
:103BB000A114B104B9F0D5018C91882399F08091BA
:103BC0000907811114C042E450E0B5018DE292E092
:103BD0000E94E3C90E94A64D83E080932C0207C097
:103BE000112331F360E080E292E00E94C44D83E053
:103BF00090E090939E0F80939D0F81E08093240628
:103C00000E9489770E941938C114D104E104F1049B
:103C1000E9F08091A40F9091A50FA091A60FB0910B
:103C2000A70FC80ED91EEA1EFB1E0E94577ADC01A0
:103C3000CB018C199D09AE09BF09B7FF1CC080914B
:103C400024068823C1F00E9433A4EFCF809124067C
:103C5000882319F00E9433A4F9CF809196079091A0
:103C6000970760E0029719F485E192E002C086E0D0
:103C700092E00E94C44D109224060C942B2D80914A
:103C8000960790919707019719F40E94577A08C0F8
:103C90006091A0077091A1078091A2079091A3075E
:103CA00000919C0710919D0720919E0730919F07DE
:103CB000601B710B820B930B28EE33E040E050E069
:103CC0000E9466C68091980790919907A0919A07E3
:103CD000B0919B07BC01CD01620F731F841F951F1C
:103CE0004CE3C42ED12CE12CF12CA70196010E94AB
:103CF00066C6762E672ECA01B901A70196010E94F9
:103D000066C66B017C01CA01B90128E130E040E0E0
:103D100050E00E9466C64B015C01C9016DE671E08E
:103D20000E9466C98E010F5F1F4F6115710599F0E2
:103D30006F927F92DF92CF929F928F929F938F93F9
:103D40007F936F9384E692E09F938F931F930F93DB
:103D50000E943AC212C00097B1F06F927F92DF9238
:103D6000CF929F928F929F938F9384E592E09F933F
:103D70008F931F930F930E943AC20FB6F894DEBF41
:103D80000FBECDBF36C081149104A104B10479F0F7
:103D90006F927F92DF92CF929F928F9288E492E00F
:103DA0009F938F931F930F930E943AC2E6CFC11443
:103DB000D104E104F10469F06F927F92DF92CF9217
:103DC00080E492E09F938F931F930F930E943AC2D7
:103DD000D4CF6F927F928CE392E09F938F931F9347
:103DE0000F930E943AC20F900F900F900F900F9078
:103DF0000F908091090781110CC042E450E0B80196
:103E00008DE292E00E94E3C90E94A64D83E0809378
:103E10002C02EEE5F5E184917F019FEFE91AF90AA2
:103E2000882321F00E942438F701F5CFB80188E7F4
:103E300092E00E94819B8AE00E9424380C942B2DF2
:103E400083E50E940F35882311F40C942B2D0E94DA
:103E50008D34E82E80E50E940F35882341F00E94C2
:103E60007D348B0177FF02C00C942B2D02C00DE036
:103E700010E0902FEEEAF5E080E38E0F2491921788
:103E800029F031968E13FACF0C94A62DE4E7F5E1D4
:103E900084918F010F5F1F4F882321F00E942438E7
:103EA000F801F6CFE5E8F2E084918F010F5F1F4F34
:103EB000882311F40C942B2D0E942438F801F4CFA0
:103EC0000E94D6630C942B2D8091960790919707B2
:103ED000019711F00C942B2D82E090E090939707BE
:103EE000809396070E94577A6093A0077093A1076A
:103EF0008093A2079093A3070C942B2D88E690E063
:103F00000E94A43B81110C942B2D8091610483FFAE
:103F100002C00C942B2D83E50E940F35882309F4F1
:103F20004BC00E94AD34F090E5070F2D10E0000F5C
:103F3000111F075B194F0E94E6C7D8016D937C9350
:103F40008F2D0E940D710E94AD3420E030E04AEACE
:103F500052E40E94A1C218163CF00E94596260E02F
:103F60008BE992E00E94C44D0E94AD340091E507B8
:103F700010E0F801EE0FFF1FEE0FFF1FE351F14FAE
:103F800020813181428153810E94C8C81816A4F44F
:103F90008CEE92E09F938F930F5F1F4F1F930F93B1
:103FA00084E992E09F938F931F920E94BB630FB6A8
:103FB000F894DEBF0FBECDBF0E94F9BC0C942B2D30
:103FC0008EE40E940F35882311F40C942B2D0E944F
:103FD0007D3460930C0770930D0780930E079093C8
:103FE0000F070C942B2D83E50E94E034882359F0B1
:103FF00083E50E940F35882319F00E948D3401C09B
:1040000080E080936104EEE5F5E184918F010F5F1C
:104010001F4F882321F00E942438F801F6CFE4EBEB
:10402000F2E084918F010F5F1F4F882321F00E94DF
:104030002438F801F6CF809161048823A1F116EAB3
:10404000C12E12E0D12EE12CF12C20E080916104F0
:1040500090E00E2C02C0959587950A94E2F780FFB8
:1040600017C0BB24B394B20E222319F08CE20E9435
:104070002438F60125913491F901849189010F5F6B
:104080001F4F882321F00E9424389801F5CF2B2D53
:10409000FFEFEF1AFF0A32E0C30ED11C45E0E41631
:1040A000F104A1F629C0E0EBF2E084918F010F5FEB
:1040B0001F4F882309F10E942438F801F6CF04EA43
:1040C00017E080E20E942438D8016D917D918D9196
:1040D0009D918D0142E00E945D3C8CE20E9424385B
:1040E000F801648175818681978142E00E945D3C80
:1040F000F7E00C3A1F0729F78AE00E9424380C9455
:104100002B2D109200020C942B2D8BEB92E00E9431
:104110001BB00E94E7350C942B2D83E50E940F35D0
:10412000882369F00E948D348D3320F480938A02B5
:104130000C942B2D8CE380938A020C942B2DEEE5AE
:10414000F5E184918F010F5F1F4F882321F00E94BA
:104150002438F801F6CF40918A0250E060E070E028
:1041600084EC92E00E94119B8AE00E9424380C9417
:104170002B2D8091610483FF02C00C942B2D83E5CD
:104180000E940F35882311F40C942B2D0E94AD341E
:104190000E94E6C76739710514F066E970E0709314
:1041A0004806609347060E94C2700C942B2D89E646
:1041B00090E00E94A43B811111C0EBECF2E08491ED
:1041C0008F010F5F1F4F882321F00E942438F801D0
:1041D000F6CF0E94D16F8AE00E94243810929E0F81
:1041E00010929D0F0C94A33283E50E940F35882313
:1041F00011F40C942B2D0E948D34182F8D3308F060
:104200001CE31093A30F0E94577A6B017C01212FAE
:1042100030E0A8EEB3E00E9492C6C60ED71EE81E9C
:10422000F91EC0929F0FD092A00FE092A10FF092C2
:10423000A20F0C942B2D8DE690E00E94A43B8111DF
:104240000C942B2D8091610483FF02C00C942B2DC4
:1042500083E50E940F358CA781110C94BC2D82E55B
:104260000E940F3581110C94BC2D0C942B2D809144
:10427000610483FF02C00C942B2D60E080E093E08A
:104280000E94C44D83E50E940F358CA781110C94C8
:10429000412F82E50E940F3581110C94412F0C941F
:1042A0002B2D80E50E940F35811108C083E50E9407
:1042B0000F35811109C03FEF20E00AC00E948D3404
:1042C00081110C942B2DF2CF0E947D34362F272F95
:1042D000832F922F8F3F910519F010F08FEF90E010
:1042E00090934606809345060C942B2D80E50E9402
:1042F0000F35811106C010924606109245060C94A7
:104300002B2D0E947D34672B11F00C942B2DF3CFB5
:104310000E9465710E9489770E94D4A61092460679
:104320001092450668EE73E080E090E00E94E74C52
:1043300060E08DE093E00E94C44D0C942B2D109210
:104340009D030C942B2D81E080939D030C942B2DC9
:1043500083E50E940F358823A1F00E94AD3420E050
:1043600030E04AE754E40E9406C30E94EBC7609322
:104370008B0270938C0280938D0290938E020C942A
:104380002B2D88E50E94E03481110C947E3089E564
:104390000E94E03481110C947E308AE50E94E03462
:1043A00081110C947E3085E40E94E03481110C94DC
:1043B0007E300E9489770E94D4A60C942B2D83E531
:1043C0000E94E034882311F40C942B2D0E94AD340C
:1043D00020E030E04AE754E40E9406C30E94EBC7A5
:1043E0006093A80F7093A90F8093AA0F9093AB0FBF
:1043F0000C942B2D8CE590E00E94A43B81110C9431
:104400002B2DADE9B2E0BD8FAC8F21EBC22E26E0A3
:10441000D22EF12CEC8DFD8D8191FD8FEC8F0E94C1
:10442000E034882309F473C0F3E0FF1268C00E94EF
:10443000AD342B013C0120E030E040EA51E40E9421
:10444000A1C2E090E50787FF4FC00E2D10E00D5F81
:104450001F4F000F111F000F111FF801EF54F94FEC
:10446000A301920160817181828193810E947EC744
:104470004B015C019B01AC016091AD067091AE06F1
:104480008091AF069091B0060E9406C36093AD067E
:104490007093AE068093AF069093B00698012359AF
:1044A000394F1901A5019401D1016D917D918D9133
:1044B0009C910E9406C3F101608371838283938380
:1044C0000957174FD8016D917D918D919C910E9454
:1044D000A5C2A50194010E9406C30E94EBC7F80182
:1044E000608371838283938324E0E29EF001112430
:1044F000E354F94F408251826282738208C00E9465
:10450000AD34D6016D937D938D939C931397F39463
:10451000B4E0CB0ED11CE4E0FE127CCF0E94408BB5
:104520000C942B2D0E9489770E94CE3C0C942B2D4D
:1045300084918F010F5F1F4F882321F00E94243840
:10454000F801F6CF60E08DEB93E00E941E3C60E046
:1045500086EB93E00E941E3C61E08BEA93E00E94B0
:104560001E3C61E08BE993E00E941E3C60E082E922
:1045700093E00E941E3C61E088E893E00E941E3CAC
:1045800060E08EE793E00E941E3C60E086E793E0E7
:104590000E941E3C60E088E693E00E941E3C60E0C2
:1045A0008AE593E00E941E3C60E08BE493E00E9469
:1045B0001E3C60E08DE393E00E941E3C60E087E2D9
:1045C00093E00E941E3C60E086E193E00E941E3C66
:1045D0000C942B2D60915A0470915B048091090713
:1045E00081110C942B2D42E450E08DE292E00E9468
:1045F000E3C90E94A64D83E080932C020C942B2DDE
:1046000085E40E940F35882319F00E949E3403C070
:1046100085E40E94E034882361F0EEE5F5E18491C1
:104620008F010F5F1F4F882321F00E942438F8016B
:10463000F6CF81E40E940F35882319F00E949E3442
:1046400003C081E40E94E034882361F0ECE8F4E0E8
:1046500084918F010F5F1F4F882321F00E9424381F
:10466000F801F6CF00915A0410915B04D8018D91A6
:104670008D01882309F440CD0E942438F7CFE8EA61
:10468000F4E084918F010F5F1F4F882321F00E9477
:104690002438F801F6CFE0EAF4E084918F010F5F4F
:1046A0001F4F882321F00E942438F801F6CF659B24
:1046B00003C009ED12E002C00EED12E0F801819195
:1046C0008F01882319F00E942438F8CF8AE00E94D5
:1046D0002438E8E9F4E084918F010F5F1F4F8823AD
:1046E00021F00E942438F801F6CF8091030181FF68
:1046F00003C009ED12E002C00EED12E0D8018D9169
:104700008D01882319F00E942438F8CF8AE00E9496
:104710002438E0E9F4E084918F010F5F1F4F882374
:1047200021F00E942438F801F6CF4B9B03C009ED1D
:1047300012E002C00EED12E0F80181918F01882392
:1047400009F4DACC0E942438F7CF81E08093770710
:10475000809376070C942B2D109277071092760792
:104760000C942B2D83E50E940F35882319F00E94AD
:104770007D3402C060E070E08B011127023011052A
:10478000D4F0E4E7F5E184918F010F5F1F4F882398
:1047900021F00E942438F801F6CFE2ECF4E0849195
:1047A0008F010F5F1F4F882311F40C942B2D0E9453
:1047B0002438F801F4CF88E40E940F358823A9F04B
:1047C0000E947D346A3A71053CF06F30F1E07F075A
:1047D0002CF06EE071E002C06AEA70E0F801EE0FC2
:1047E000FF1FEF5AF94F7183608386E40E940F35F3
:1047F0008823A9F00E947D34F801EE0FFF1FEB5AC9
:10480000F94F718360836F3F710519F014F06FEFFA
:1048100070E077FF02C060E070E07183608382E443
:104820000E940F35882311F40C942B2D0E947D34A7
:104830006530710534F0683871052CF067E870E078
:1048400002C065E070E0000F111FF801E35BF94F53
:10485000718360830C942B2D88EC90E00E94A43B24
:1048600081110C942B2D84E40E94E034882309F4F8
:1048700054C00E94AD3411E020E030E0A9010E9454
:10488000A1C2811101C010E01093AE08112309F4F8
:1048900044C00E94AD34E091E50724E0E29FF001BE
:1048A0001124EB55F74F608371838283938320E05B
:1048B00030E0A9016091A5087091A6088091A70831
:1048C0009091A8080E94A1C281110CC080E090E0E4
:1048D000A0EEBFE38093A5089093A608A093A70835
:1048E000B093A80820E030E0A9016091A908709178
:1048F000AA088091AB089091AC080E94A1C28111D6
:104900000CC080E090E0A0EEBFE38093A9089093F4
:10491000AA08A093AB08B093AC080E94867D0C94C3
:104920002B2D89EC90E00E94A43B81110C942B2D3F
:10493000FDE9CF2EF2E0DF2EF12CD6018D916D0135
:104940000E94E0348823C1F0B3E0FB1203C0009161
:10495000E50701C000E00E94AD340F0DE4E00E9FBA
:10496000800111240F57194F0E94EBC7D8016D9396
:104970007D938D939C931397F394B4E0FB12DDCF5A
:104980000E94F0890C942B2D8BEC90E00E94A43BAC
:1049900081110C942B2DEDE9EE2EE2E0FE2E00E0CD
:1049A000F70181917F010E94E034882399F0033060
:1049B00019F41091E50701C010E00E94AD34100F0A
:1049C00024E0129FF0011124E359F94F60837183B1
:1049D000828393830F5F043019F70C942B2D83E5AA
:1049E0000E94E0348823D9F00E94AD34AB01BC01B1
:1049F00040939D0650939E0660939F067093A00679
:104A00004093950650939606609397067093980688
:104A10008EE395E00E944B9B8AE00E94243880E55B
:104A20000E94E034882399F00E94AD34AB01BC01B0
:104A300040939D0650939E0660939F067093A00638
:104A400081E295E00E944B9B8AE00E94243882E537
:104A50000E94E034882399F00E94AD34AB01BC0180
:104A60004093990650939A0660939B0670939C0618
:104A700082E095E00E944B9B8AE00E94243884E506
:104A80000E94E034882309F4E6C70E94AD34AB01EC
:104A9000BC014093950650939606609397067093D9
:104AA000980684EE94E00E944B9B8AE00E94243892
:104AB000D2C783E50E94E034882351F00E94AD34D0
:104AC0006093690670936A0680936B0690936C06F8
:104AD00084E50E94E034882351F00E94AD34609355
:104AE000650670936606809367069093680682E475
:104AF0000E94E034882351F00E946D346093820854
:104B000070938308809384089093850888E50E94B9
:104B1000E034882351F00E94AD346093A106709375
:104B2000A2068093A3069093A40689E50E94E03430
:104B3000882351F00E94AD346093A5067093A606B9
:104B40008093A7069093A8068AE50E94E034882304
:104B500051F00E94AD346093A9067093AA06809329
:104B6000AB069093AC0685E40E94E034882309F4F8
:104B700072C70E94AD346093AD067093AE06809309
:104B8000AF069093B00667C76DE9C62E62E0D62ED9
:104B90007CE2E72E74E0F72E00E010E0D6018D9164
:104BA0006D010E94E034882351F00E94AD34F7017A
:104BB0006083718382839383C8010E946A330F5F8D
:104BC0001F4FF4E0EF0EF11C0330110539F70C9480
:104BD0005C1C83E50E94E034882351F00E94AD34D0
:104BE0006093CB087093CC088093CD089093CE0847
:104BF00086E40E94E034882381F00E94AD3420E0F6
:104C000030E040E752E40E947EC76093C30870938F
:104C1000C4088093C5089093C6088AE50E94E034D2
:104C2000882351F00E94AD346093BF087093C00890
:104C30008093C1089093C20887E50E94E0348823DE
:104C400009F409C70E94AD346093C7087093C8087F
:104C50008093C9089093CA08FEC683E50E94E03499
:104C6000882351F00E94AD346093BB087093BC0858
:104C70008093BD089093BE0886E40E94E0348823A8
:104C800081F00E94AD3420E030E040E752E40E9421
:104C90007EC76093B3087093B4088093B50890936F
:104CA000B60882E50E94E034882381F00E94AD348A
:104CB00020E030E040E752E40E947EC76093AF08F6
:104CC0007093B0088093B1089093B20887E50E9472
:104CD000E034882309F4BFC60E94AD346093B7085E
:104CE0007093B8088093B9089093BA08B4C683E566
:104CF0000E94E034882309F4AEC60E949E3480935B
:104D0000CF0810928C0310928D03A5C6EEE5F5E155
:104D100084918F010F5F1F4F882321F00E94243858
:104D2000F801F6CF83E50E94E034882321F00E9449
:104D30009E3480931702EEE8F5E084918F010F5FB7
:104D40001F4F882321F00E942438F801F6CF80916C
:104D50001702811103C0EAE8F5E002C0E6E8F5E0D9
:104D600084918F010F5F1F4F882321F00E94243808
:104D7000F801F6CFEEE7F5E084918F010F5F1F4F4A
:104D8000882321F00E942438F801F6CF2091F90EF3
:104D90003091FA0E4091FB0E5091FC0E60918E0303
:104DA00070918F0380919003909191030E94A2C60D
:104DB000AB01BC018CE795E00E944B9B2091FD0E5E
:104DC0003091FE0E4091FF0E5091000F60919203C2
:104DD0007091930380919403909195030E94A2C6D1
:104DE000AB01BC0189E795E00E944B9B2091010F2C
:104DF0003091020F4091030F5091040F6091960380
:104E00007091970380919803909199030E94A2C694
:104E1000AB01BC0186E795E00E944B9BEEE6F5E016
:104E200084918F010F5F1F4F882321F00E94243847
:104E3000F801F6CF2091F90E3091FA0E4091FB0E59
:104E40005091FC0E60910B0270910C0280910D024A
:104E500090910E020E94A2C6AB01BC018CE695E0C7
:104E60000E944B9B2091FD0E3091FE0E4091FF0E53
:104E70005091000F60910F02709110028091110209
:104E8000909112020E94A2C6AB01BC0189E695E096
:104E90000E944B9B2091010F3091020F4091030F14
:104EA0005091040F609113027091140280911502C9
:104EB000909116020E94A2C6AB01BC0186E695E065
:104EC0000E944B9B8AE00E942438C5C58AED90E081
:104ED0000E94A43B8111BFC58091E507882309F496
:104EE000BAC50C94A43083E50E940F35882309F4D9
:104EF000B2C50E947D3470939C0260939B02ABC547
:104F00008DED90E00E94A43B8111A5C583E50E9430
:104F10000F35882309F49FC50091E50710E00E9432
:104F20007D34000F111FF801E956FD4F7183608336
:104F30008091E50790E07C01EE0CFF1CEE0CFF1C5D
:104F4000870101571D4F880F991FFC01E956FD4F3E
:104F500060817181072E000C880B990B0E94A7C2FB
:104F60002AE037ED43E25CE30E9406C3F701EA540E
:104F7000F04F20813181428153810E9406C3D801C4
:104F80006D937D938D939C93139765C580E50E94E7
:104F9000E034882309F45FC50E947D346B017C01F5
:104FA00083E50E940F35882321F00E947D348B0118
:104FB00002C00FEF1FEFC8010196039708F04BC521
:104FC000D7FC49C59C2DEEEAF5E080E38E0F2491D5
:104FD000921709F440C531968E13F9CF0C947B32A9
:104FE0000E941B3538C50E94F23835C50E942B3807
:104FF00032C585E40E940F35882321F00E947D345C
:105000007B0102C0E12CF12C83E40E940F35882340
:1050100031F00E947D346B966FAF6B9704C045E012
:105020006B964FAF6B9785E50E940F35882319F07B
:105030000E949E3403C085E50E94E034A7968FAF9E
:10504000A797F7FC07C0812C912C86E1A82E83E45A
:10505000B82E06C0812C912C0CE8A02E02E4B02EB4
:1050600083E50E940F35882321F00E94AD344B0167
:105070005C0152E0E516F10410F4E092E507EC8ED5
:105080000E94577A2B013C018C8D87FD02C004E100
:1050900001C008E761E06E0D633028F417EFE12EE0
:1050A00012E0F12E0BC00AE013E0D8018D918D01C2
:1050B000882309F421C80E942438F7CFF701819191
:1050C0007F01882319F00E942438F8CF8AE00E94DB
:1050D00024380E946571FC8DF7FF04C08FE7809330
:1050E000E40708C02C8DE22F220FFF0BEE51F84F82
:1050F0008FE78083C501B4010E94E6C7072E000C2C
:10510000880B990B0E94A7C26CA378A788AB9CABB5
:10511000202F30E0A8EEB3E00E9492C6AB966CAFB1
:105120007DAF8EAF9FAFAB97DC01CB01840D951D9A
:10513000A61DB71DE7968CAF9DAFAEAFBFAFE7978B
:1051400081E080930002A2964CAE5DAE6EAE7FAE63
:10515000A297AF964CAE5DAE6EAE7FAEAF976E9639
:105160001FAE6E97E3961CAE1DAE1EAE1FAEE3974C
:105170002D961FAE2D9790E461969FAF6197ACE19D
:105180002596AFAF2597B6E42996BFAF29976596C8
:105190001FAE659766961FAE669767961FAE6797B8
:1051A00068961FAE689724961CAE1DAE1EAE1FAE4D
:1051B00024971CAE1DAE1EAE1FAEC12CD12C7601A5
:1051C000AFE78A2E912CA12CB12C2FE730E040E0E4
:1051D00050E02CA73DA74EA75FA7A6961CAE1DAE1C
:1051E0001EAE1FAEA69731E06D963FAF6D9719AE1C
:1051F00018AE10E0212C312C00E04C8D842F440F90
:10520000990BDC01AE51B84FE996BFAFAEAFE9974D
:10521000880F991F880F991FFC01E351F14F6A967F
:10522000FFAFEEAF6A976B962FAD6B97022E000C17
:10523000330B6C963FAF2EAF6C97809100028823A2
:1052400009F4FAC00E94577A68A379A38AA39BA3A2
:105250008091E007882309F4D3C00E9443723C8DFB
:1052600037FF09C01091F50E2090F60E3090F70E22
:105270000091F80E0DC06A96AEADBFAD6A971C9155
:1052800011962C90119712963C90129713960C91B0
:10529000212F322D432D502F65966FAD6597669661
:1052A0007FAD669767968FAD679768969FAD689755
:1052B0000E94A1C287FF0CC065961FAF65976696D6
:1052C0002FAE669767963FAE679768960FAF689761
:1052D000212F322D432D502F2D966FAD2D97619696
:1052E0007FAD619725968FAD259729969FAD29971C
:1052F0000E94C8C8181664F42D961FAF2D976196AA
:105300002FAE619725963FAE259729960FAF299727
:105310006D96BFAD6D972CA138A548A95CA9612FEA
:10532000722D832D902FBB2309F450C00E94C8C852
:1053300018160CF065C048A159A16AA17BA14419B7
:10534000550966097709DB01CA0188589341A1090B
:10535000B109B7FD55C08CA59DA5AEA5BFA58819FF
:105360009909AA09BB09EC8DB595A79597958795DD
:10537000E7FF03C08093E40705C0E996EEADFFADFB
:10538000E9978083A6964CAF5DAF6EAF7FAFA697CF
:10539000FCA16596FFAF659728A566962FAF669727
:1053A00038A967963FAF67974CA968964FAF689743
:1053B00088A199A1AAA1BBA1A2968CAF9DAFAEAFC7
:1053C000BFAFA2976D961FAE6D971AC00E94A1C283
:1053D00087FF16C088A199A1AAA1BBA1A2962CAD56
:1053E0003DAD4EAD5FADA297821B930BA40BB50BE9
:1053F000AC01BD01485853416109710977FFE2C60C
:1054000020E030E040EA51E46CA178A588A99CA98D
:105410000E94A2C69B01AC01612F722D832D902F9B
:105420000E94C8C818167CF4E9EDF6E084918F015B
:105430000F5F1F4F811103C00E9465710CC30E9452
:105440002438F801F3CF88A199A1AAA1BBA1AF96F6
:105450002CAD3DAD4EAD5FADAF97821B930BA40B52
:10546000B50BB7FD97C00E94D16F8AE00E94243827
:1054700088A199A1AAA1BBA18053984FAF4FBF4F5C
:10548000AF968CAF9DAFAEAFBFAFAF976E969FADEF
:105490006E97911164C0E3962CAD3DAD4EAD5FADFE
:1054A000E397612F722D832D902F0E94C8C8181684
:1054B0000CF040C020E030E040EC50E46CA178A556
:1054C00088A99CA90E94A1C69B01AC01A1E06E968F
:1054D000AFAF6E97612F722D832D902F0E94C8C899
:1054E00018161CF06E961FAE6E9720E030E040E07C
:1054F00050E4612F722D832D902F0E94A2C6E39657
:105500006CAF7DAF8EAF9FAFE39728A139A14AA1C1
:105510005BA1AB968CAD9DADAEADBFADAB97280F8B
:10552000391F4A1F5B1FE7962CAF3DAF4EAF5FAFF1
:10553000E79730C088A199A1AAA1BBA1E7962CAD9D
:105540003DAD4EAD5FADE797821B930BA40BB50B42
:10555000B7FD20C04BEB56E06AEC76E018C020E0C7
:1055600030E040EA51E46CA178A588A99CA90E948A
:10557000A1C69B01AC01612F722D832D902F0E943B
:10558000A1C287FF07C04BE956E06BEA76E08C8D3D
:105590000E94777288A199A1AAA1BBA1880F991F27
:1055A000AA1FBB1FA2962CAD3DAD4EAD5FADA2971D
:1055B000821B930BA40BB50B84199509A609B70997
:1055C00081389F44A241B10568F0EDE7F6E084918F
:1055D0008F010F5F1F4F882309F42ECF0E942438BC
:1055E000F801F5CF48AD59AD6C968EAD9FAD6C9777
:1055F000841795070CF0ABC0E0E2F6E084918F01D0
:105600000F5F1F4F882321F00E942438F801F6CF46
:105610009C8D97FD03C00AE813E002C008EE12E07B
:10562000B8018EE096E00E94819BB701A6018AE056
:1056300096E00E944B9B8AE00E942438B80188EFD4
:1056400095E00E94819B4CAD5DAD6EAD7FAD84EF6A
:1056500095E00E944B9B8AE00E942438B80182EEBC
:1056600095E00E94819B24964CAD5DAD6EAD7FAD03
:1056700024978EED95E00E944B9B8AE00E9424388F
:10568000A796AFADA797AA2309F4E5C1BC8DB7FFD4
:105690002FC0C092DC07D092DD07E092DE07F092C7
:1056A000DF072CEA35EC47E25EE36CAD7DAD8EADF5
:1056B0009FAD0E9406C36093D8077093D90780936B
:1056C000DA079093DB072CEA35EC47E25EE3249699
:1056D0006CAD7DAD8EAD9FAD24970E947EC760936B
:1056E000D4077093D5078093D6079093D707B3C19B
:1056F000C0923806D0923906E0923A06F0923B0604
:105700002CEA35EC47E25EE36CAD7DAD8EAD9FAD2E
:105710000E9406C360934006709341068093420640
:10572000909343062CEA35EC47E25EE324966CAD99
:105730007DAD8EAD9FAD24970E947EC760933C06E1
:1057400070933D0680933E0690933F0684C10E946D
:10575000E24D73CD0E94096581117DC149EE842E11
:1057600049E2942EE9EFF6E0FD8FEC8F9E012F5F6A
:105770003F4F590102E31AE2190133E0300F38A319
:10578000F4016591759185919491AC8DBD8DCD900D
:10579000DD90ED90FD90BD8FAC8FA70196010E942A
:1057A000A1C62B013C0120E030E040EA51EC0E9410
:1057B000C8C887FD10C020E030E040EA51E4C301D2
:1057C000B2010E94A1C2181634F0F1014082518248
:1057D000628273820DC0F80184911816B4F7F7FA4B
:1057E000F094F7F8F094F101C082D182E282F38262
:1057F000D101CD90DD90ED90FD901D0120E030E0D5
:1058000040EA51ECC701B6010E94C8C887FF03C037
:10581000E4E7F5E10BC020E030E040EA51E4C701E5
:10582000B6010E94A1C2181674F5F2CF84918F01BF
:105830000F5F1F4F882321F00E942438F801F6CF14
:10584000EBE6F7E084918F010F5F1F4F882321F073
:105850000E942438F801F6CF61E08DE597E00E94C0
:10586000C44D0E94F89D88E290E09F8B8E8B88EC5F
:1058700090E09B8F8A8FBE016A5E7F4FCE014A9671
:105880000E948763E8C0B4E08B0E911C0F5F1F4F2E
:10589000E8A1E01375CF3CE2E32E34E0F32E00E004
:1058A00010E0F50181919191A191B1915F01F70112
:1058B00081939193A193B1937F01C8010BD70F5F9F
:1058C0001F4F0330110569F70E94CE3C60E08DE464
:1058D00097E00E94C44D83E992E09B8F8A8F04E693
:1058E00010E01F8B0E8BBE01665E7F4FCE01469689
:1058F0000E9487638AEB92E09B8F8A8F1F8B0E8BAF
:10590000BE01665E7F4FCE0146960E948763A3C0AC
:10591000E4E7F5E184918F010F5F1F4F882321F0A9
:105920000E942438F801F6CFE9E8F7E084918F016E
:105930000F5F1F4F882309F48EC00E942438F8019E
:10594000F5CF0E940DAC80E00E94F46684C00E94F6
:105950000DAC81C083E50E94E034882319F0EED7B6
:1059600091E089270E94F46676C0E4E7F5E184912E
:105970008F010F5F1F4F882321F00E942438F80108
:10598000F6CFEAE9F7E084918F010F5F1F4F88237C
:1059900009F461C00E942438F801F5CF81E08093BA
:1059A00070021092090783E50E940F35882311F0D9
:1059B000C5D703C083E50E94E03481114CC00E942A
:1059C0004CA849C010915C048091AD08181759F09B
:1059D00083E50E940F35882311F0B0D702C083E51C
:1059E000EFD7082F01C001E086E40E940F3588231D
:1059F00011F0B3D703C060E070E0CB01123020F0AB
:105A0000812F0E94E03B27C020E030E040E752E4D5
:105A10000E947EC7AB01BC01202F812F0E9442AEA5
:105A20001AC0EEE5F5E184918F010F5F1F4F8823C7
:105A300021F00E942438F801F6CF60915F04709144
:105A4000600489EA97E00E94819B82E20E942438E8
:105A50008AE00E94243810929E0F10929D0F0E949F
:105A60002DA871C50E944C358091CF08882309F478
:105A70003EC085E4A5D78823D1F188E5A1D781115F
:105A800036C089E59DD7811132C08AE599D7811149
:105A90002EC08090F5069090F606A090F706B09084
:105AA000F8062091050730910607409107075091AD
:105AB0000807C501B4010E94A1C66B017C012B013E
:105AC0003C01E89477F82DEC3CEC4CEC5DE3C30131
:105AD000B2010E94C8C887FD0AC020E030E040E261
