:100000000C9486150C94B7150C94B7150C94B71571
:100010000C94B7150C94B7150C94B7150C94B71530
:100020000C94B7150C94B7150C94B7150C94B71520
:100030000C94B7150C94B7150C94B7150C94B71510
:100040000C94B7150C9422290C94B7150C94B71581
:100050000C94B7150C94B7150C941D830C9477A5CC
:100060000C94B7150C94661F0C94B7150C94B71527
:100070000C94B7150C94B7150C94B7150C94B715D0
:100080000C94B7150C94B7150C94B7150C94B715C0
:100090000C94B7150C94B7150C94B7150C94B715B0
:1000A0000C94B7150C94B7150C94B7150C94B715A0
:1000B0000C94B7150C94B7150C94B7150C94B71590
:1000C0000C94B7150C94B7150C94B7150C94B71580
:1000D0000C94B7150C94B7150C94B7150C94B71570
:1000E0000C94B715CD83D283FC830184E183ED8327
:1000F000B7835B8D5E8D4D8D518D578D958D628D46
:10010000668D6C8D708D748D7A8D7E8D828D958DC2
:10011000888D8C8D908D498F4E8F538F5D8F678F1B
:10012000E08F718F798F818F8B8F958F9F8FAE8F9F
:10013000B88FE08FC28FCC8FD68FA892F790309176
:10014000E4923091309130913091309130913091F2
:100150003091309130913091309130913091309197
:100160003091309130913091309130913091309187
:10017000309130913091DE923091309130913091C8
:100180003091309130913091B792309130913091DF
:100190003091309130913091309130913091FB928B
:1001A0002D91084AD73B3BCE016E84BCBFFDC12FC9
:1001B0003D6C74319ABD56833DDA3D00C77F11BE58
:1001C000D9E4BB4C3E916BAAAABE000000803F055B
:1001D000A84CCDB2D44EB93836A9020C50B991868C
:1001E00088083CA6AAAA2ABE000000803F004E4113
:1001F0004E494E495459494E46CDCCCC3D0AD723A1
:100200003C17B7D13877CC2B329595E6241FB14FE8
:100210000A000020410000C84200401C4620BCBE2D
:100220004CCA1B0E5AAEC59D74434F4D4D554E4999
:10023000434154494F4E0044525952554E00455285
:10024000524F525300494E464F004543484F0047D6
:10025000322F47332062616420706172616D657472
:100260006572730A00536C6565702E2E2E00526500
:1002700073756D696E67207072696E7400444432E4
:100280002072656164792E00436C69636B20746F22
:1002900020726573756D652E2E2E004E6F206D6F6A
:1002A00076652E002569730025696D202569730028
:1002B0002569682025696D202569730025696420FA
:1002C0002569682025696D202569730025697920D5
:1002D000256964202569682025696D2025697300DA
:1002E0005072696E742074696D653A200050726FA7
:1002F0007465637465642050696E0A004525692041
:100300002573004444322072656164792E004A02EC
:1003100045023E02370229026F6666004445425597
:10032000473A004B494C4C45442E20006F6B00442B
:100330004432204F66662E00454D455247454E4398
:10034000595F50415253455200434153455F4C4918
:100350004748545F4252494748544E45535300540E
:100360004F47474C455F4C494748545300534F460D
:1003700054574152455F504F574552004255494CE2
:10038000445F50455243454E54004C4556454C49F8
:100390004E475F44415441005A5F50524F4245001E
:1003A0004155544F4C4556454C005052494E545FB0
:1003B0004A4F420050524F47524553530041555403
:1003C0004F5245504F52545F54454D5000564F4C7C
:1003D000554D455452494300454550524F4D0053E9
:1003E000455249414C5F584F4E5F584F4646004674
:1003F00049524D574152455F4E414D453A4D61720C
:100400006C696E20312E312E38202847697468754A
:10041000622920534F555243455F434F44455F5532
:10042000524C3A68747470733A2F2F676974687508
:10043000622E636F6D2F4D61726C696E4669726DCD
:10044000776172652F4D61726C696E2050524F5406
:100450004F434F4C5F56455253494F4E3A312E3021
:10046000204D414348494E455F545950453A444414
:10047000322045585452554445525F434F554E54CF
:100480003A3220555549443A6365646532613266B3
:100490002D343161322D343734382D396231322DDB
:1004A0006335356336326633363766660A002F2F7A
:1004B00020004D31343520533C696E6465783E2010
:1004C0006F7574206F662072616E67652028302D0D
:1004D00031290A0053657474696E6720547261761D
:1004E000656C20416363656C65726174696F6E3A17
:1004F000200053657474696E67205265747261637D
:100500007420416363656C65726174696F6E3A2033
:100510000053657474696E67205072696E7420416F
:100520006363656C65726174696F6E3A2000536530
:100530007474696E67205072696E7420616E6420F5
:1005400054726176656C20416363656C6572617499
:10055000696F6E3A2000205A002059005800202070
:100560004D61783A2000205A002059005800202080
:100570004D696E3A20004F6E20004F666600536F43
:10058000667420656E6473746F70733A2000486FF0
:1005900074656E64206F6666736574733A0000015B
:1005A00036372603FF3C3D380EFF2E303E12FFFF4C
:1005B0000C0809FFFFFF1A1C18FFFF24221EFFFF73
:1005C00008440AFF4307FF45FFFFFFFFFFFF2064CA
:1005D0003A0020693A0020703A0020643A0020690D
:1005E0003A0020703A0043290A0061626C65642079
:1005F000286D696E2074656D702000436F6C6420F7
:1006000065787472756465732061726520000000FE
:1006100020C20000C0C0000000004F666673657411
:1006200073206170706C696564004572723A205481
:100630006F6F206661722100546F6F2066617220B7
:1006400066726F6D207265666572656E6365207097
:100650006F696E740A00FFFFFF454550524F4D20F1
:1006600064697361626C65640A004E6F2063617334
:1006700065206C696768740A00556E6B6E6F776EE3
:1006800020636F6D6D616E643A202200456E647365
:10069000746F7073202563202563202563202563F4
:1006A00000205A3A0020593A0020583A00656E64FA
:1006B00073746F7073206869743A2000656E717589
:1006C000657565696E672022004B494C4C45442E88
:1006D000200053544F505045442E20005072696EF4
:1006E0007465722073746F70706564206475652022
:1006F000746F206572726F72732E20466978207451
:100700006865206572726F7220616E642075736512
:10071000204D39393920746F207265737461727499
:100720002E202854656D706572617475726520693C
:10073000732072657365742E20536574206974206C
:1007400061667465722072657374617274696E6734
:10075000290A004E6F20436865636B73756D2077BF
:10076000697468206C696E65206E756D6265722CA7
:10077000204C617374204C696E653A200063686593
:10078000636B73756D206D69736D617463682C2084
:100790004C617374204C696E653A20004C696E653B
:1007A000204E756D626572206973206E6F74204CE7
:1007B000617374204C696E65204E756D6265722B95
:1007C000312C204C617374204C696E653A20004DC9
:1007D0003131300020496E76616C6964206578742F
:1007E00072756465722000000020C20000C0C00065
:1007F000000000CD4C344300004E43000048434805
:10080000656174696E6720646F6E652E0020573ACB
:1008100000452569202573004444322072656164D7
:10082000792E00416D617820453200416D6178205C
:10083000453200416D617820453200416D6178207C
:10084000453100416D617820453100416D6178206E
:10085000453100416D6178204500416D617820454A
:1008600000416D6178204500416D6178205A00415A
:100870006D6178205A00416D6178205A00416D61A8
:1008800078205900416D6178205900416D617820D0
:100890005900416D6178205800416D617820580001
:1008A000416D6178205800412D74726176656C004D
:1008B000412D74726176656C00412D7265747261B0
:1008C000637400412D7265747261637400416363E7
:1008D000656C00416363656C004D6F74696F6E00F9
:1008E00056652D6A65726B0056652D6A65726B00E0
:1008F00056652D6A65726B00567A2D6A65726B00BB
:10090000567A2D6A65726B0056792D6A65726B0096
:1009100056792D6A65726B0056792D6A65726B0087
:1009200056782D6A65726B0056782D6A65726B0079
:1009300056782D6A65726B004D6F74696F6E004555
:100940003273746570732F6D6D004532737465700A
:10095000732F6D6D00453173746570732F6D6D006D
:10096000453173746570732F6D6D004573746570D8
:10097000732F6D6D004573746570732F6D6D005A24
:1009800073746570732F6D6D005A73746570732F77
:100990006D6D005973746570732F6D6D00597374AC
:1009A0006570732F6D6D005873746570732F6D6D66
:1009B000005873746570732F6D6D004D6F74696F9F
:1009C0006E0053746570732F6D6D004A65726B0015
:1009D000416363656C65726174696F6E0056656C26
:1009E0006F6369747900436F6E74726F6C0046694F
:1009F0006C2E204469612E20320046696C2E204402
:100A000069612E20320046696C2E204469612E20D7
:100A1000310046696C2E204469612E203100466900
:100A20006C2E204469612E0046696C2E2044696159
:100A30002E004F6666004F6E20004520696E206DC7
:100A40006D3300436F6E74726F6C0024F4D43050B9
:100A5000C38E20C2A24017828B7011127A910D8131
:100A60006CD90AA861E108C7586607615143061EA0
:100A70004B5D05C145A7041A411104093D98037156
:100A80003931034036DB0265339102D430540280A1
:100A90002E1D02632CEE01752AC501B028A001109D
:100AA0002781018F2564012B244B01E0223401AC06
:100AB000211F018D200D01801FFC00841EED009779
:100AC0001DDF00B81CD200E61BC600201BBC006462
:100AD0001AB200B219A8000A19A0006A189900D128
:100AE00017910040178B00B516840031167E00B3B5
:100AF0001579003A157300C7146F0058146A00EE98
:100B00001366008813630025135E00C7125B006C38
:100B100012570015125400C111510070114F0021DD
:100B2000114B00D61049008D1047004610440002BA
:100B3000104200C00F4000800F3E00420F3C0006F4
:100B40000F3B00CB0E3800930E37005C0E350027AC
:100B50000E3400F30D3200C10D3100900D300060F5
:100B60000D2E00320D2D00050D2C00D90C2B00AEE2
:100B70000C2900850C29005C0C2700350C27000E81
:100B80000C2600E80B2400C40B2400A00B23007DDE
:100B90000B23005A0B2100390B2100180B2000F801
:100BA0000A1F00D90A1E00BB0A1E009D0A1D0080F4
:100BB0000A1D00630A1C00470A1B002C0A1B0011B7
:100BC0000A1A00F7091A00DD091900C4091900AB57
:100BD000091900920917007B091800630917004CD6
:100BE00009160036091600200916000A091500F535
:100BF000081500E0081400CC081400B8081400A47C
:100C0000081400900813007D0812006B08130058A8
:100C100008120046081200340811002308110012BF
:100C200008110001081100F0071000E0071000D0C3
:100C3000071000C0071000B0070F00A107100091B7
:100C4000070E0083070F0074070F0065070E00579B
:100C5000070E0049070E003B070D002E070E00206F
:100C6000070D0013070D0006070D00F9060C00ED37
:100C7000060D00E0060C00D4060C00C8060C00BCF3
:100C8000060C00B0060C00A4060B0099060C008DA3
:100C9000060B0082060B0077060B006C060B00614A
:100CA000060A0057060B004C060A0042060A0038E6
:100CB000060A002E060A0024060A001A060A001078
:100CC00006090007060A00FD050900F4050900EB06
:100CD000050900E2050900D9050900D0050900C78A
:100CE000050900BE050900B5050800AD050800A509
:100CF0000509009C050800940508008C050800847F
:100D00000508007C050800740508006C05070065EF
:100D10000508005D050700560508004E0507004759
:100D20000507004005080038050700310507002ABF
:100D3000050700230507001C050600160507000F20
:100D40000507000805060002050700FB040600F57C
:100D5000040700EE040600E8040600E2040700DBD6
:100D6000040600D5040600CF040600C9040600C32B
:100D7000040600BD040600B7040600B1040500AC7B
:100D8000040600A6040600A00405009B04060095C6
:100D9000040500900406008A04050085040500800F
:100DA0000406007A04050075040500700405006B54
:100DB00004050066040500610405005C0405005795
:100DC000040500520405004D0405004804050043D5
:100DD0000405003E0404003A040500350405003013
:100DE0000404002C04050027040400230405001E4D
:100DF0000404001A04040016040500110404000D84
:100E0000040400090405000404040000040400FCB8
:100E1000030400F8030400F4030400F0030400ECEE
:100E2000030400E8030400E4030400E0030400DC1E
:100E3000030400D8030400D4030400D0030400CC4E
:100E4000030400C8030300C503030024F404D920ED
:100E50001BC40C5C0E9804C4095F0265077101F4A1
:100E600005F900FB04B30048048700C1036900587A
:100E700003550003034500BE023A008402310053CB
:100E8000022A002902250004022000E4011C00C8F7
:100E9000011900AF011700980114008401130071BB
:100EA0000110006101100051010E0043010D0036D8
:100EB000010B002B010B0020010B00150109000C98
:100EC00001090003010800FB000800F3000800EB23
:100ED000000700E4000600DE000600D8000600D28D
:100EE000000600CC000500C7000500C2000500BDDB
:100EF000000400B9000400B5000400B1000400AD16
:100F0000000400A9000400A5000300A20003009F44
:100F10000004009B0003009800030095000200936A
:100F2000000300900003008D0002008B0003008886
:100F30000002008600020084000300810002007F9E
:100F40000002007D0002007B0002007900020077B1
:100F500000010076000200740002007200010071BE
:100F60000002006F0002006D0001006C0002006AC8
:100F700000010069000200670001006600010065D1
:100F800000010064000200620001006100010060D5
:100F90000001005F0002005D0001005C0001005BD9
:100FA0000001005A000100590001005800010057DB
:100FB00000010056000100550001005400010053DB
:100FC00000000053000100520001005100010050D8
:100FD0000001004F0001004E0000004E0001004DD6
:100FE0000001004C0001004B0000004B0001004AD2
:100FF00000010049000100480000004800010047CE
:1010000000010046000000460001004500000045C8
:1010100000010044000100430000004300010042C1
:1010200000000042000100410000004100010040BA
:101030000001003F0000003F0001003E0000003EB4
:101040000001003D0000003D0001003C0000003CAC
:101050000000003C0001003B0000003B0001003AA2
:101060000000003A0001003900000039000100389A
:101070000000003800000038000100370000003791
:101080000001003600000036000000360001003587
:10109000000000350000003500010034000000347D
:1010A0000000003400010033000000330000003372
:1010B0000001003200000032000000320001003167
:1010C000000000310000003100010030000000305D
:1010D000000000300001002F0000002F0000002F52
:1010E0000000002F0001002E0000002E0000002E46
:1010F0000001002D0000002D0000002D0000002D3B
:101100000001002C0000002C0000002C0000002C2E
:101110000001002B0000002B0000002B0000002B22
:101120000001002A0000002A0000002A0000002A16
:10113000000100290000002900000029000000290A
:1011400000000029000100280000002800000028FD
:1011500000000028000000280001002700000027F0
:1011600000000027000000270000002700010026E3
:1011700000000026000000260000002600000026D7
:1011800000010025000000250000002500000025CA
:1011900000000025000000250001002400000024BC
:1011A00000000024000000240000002400010023AF
:1011B00000000023000000230000002300000023A3
:1011C0000000002300000023000100220000002294
:1011D0000000002200000022000000220000002287
:1011E000000100210000002100000021000000217A
:1011F000000000210000002100000021000100206B
:10120000000000200000002000000020000000205E
:101210000000002000000020000000200001001F4E
:101220000000001F0000001F0000001F0000001F42
:101230000000001F0000001F0001001E0000001E33
:101240000000001E0000001E000000526573746F55
:101250007265206661696C736166650052657472BF
:101260006163740046696C616D656E74004D6F74E6
:10127000696F6E0054656D7065726174757265009A
:101280004D61696E0050726568656174204142531A
:1012900020636F6E66005072656865617420504C03
:1012A0004120636F6E66005049442D44005049440C
:1012B0002D44005049442D49005049442D490050C7
:1012C00049442D50005049442D50002008204661CB
:1012D00063740020082046616374002008204D617B
:1012E00078002008204D6178002008204D617800AA
:1012F0002008204D696E002008204D696E002008EE
:10130000204D696E004F6666004F6E200041757477
:101310006F74656D700046616E2073706565640062
:1013200046616E2073706565640046616E2073705F
:10133000656564004265640042656400426564005E
:101340004E6F7A7A6C652032004E6F7A7A6C652027
:1013500032004E6F7A7A6C652032004E6F7A7A6C6A
:10136000652031004E6F7A7A6C652031004E6F7ABD
:101370007A6C65203100436F6E74726F6C00426549
:10138000640042656400426564004E6F7A7A6C6561
:10139000004E6F7A7A6C65004E6F7A7A6C65004603
:1013A000616E2073706565640046616E20737065C0
:1013B00065640046616E2073706565640054656DF8
:1013C0007065726174757265005654726176206D35
:1013D000696E005654726176206D696E00565472C3
:1013E0006176206D696E00566D696E00566D696E8E
:1013F00000566D696E00566D617820453200566D5D
:10140000617820453200566D617820453200566D76
:10141000617820453100566D617820453100566D68
:10142000617820453100566D6178204500566D6128
:1014300078204500566D6178204500566D61782012
:101440005A00566D6178205A00566D6178205A0016
:10145000566D6178205900566D6178205900566D9F
:101460006178205900566D6178205800566D61787A
:10147000205800566D61782058004D6F74696F6E6A
:101480000000060900FE0701920321207FFF07FFED
:1014900007FF000000060000010707060200808029
:1014A0008080800080030202060105A0A0050707D6
:1014B0000600005050F850F850500507070600008D
:1014C0002078A07028F020050707060000C0C8108B
:1014D000204098180507070600006090A040A890DB
:1014E00068020303060104C04080030707060100E9
:1014F00020408080804020030707060100804020B4
:101500002020408005050506000120A870A82005C0
:1015100005050600012020F820200203030602FF33
:10152000C04080050101060003F802020206020025
:10153000C0C005050506000108102040800507070A
:1015400006000070888888888870030707060100F5
:1015500040C040404040E005070706000070880892
:10156000708080F8050707060000F81020100808B2
:10157000F005070706000010305090F8101005071E
:1015800007060000F880F0080888700507070600C5
:1015900000708080F0888870050707060000F80852
:1015A000102020202005070706000070888870881A
:1015B00088700507070600007088887808087002A0
:1015C0000505060200C0C000C0C00206060602FFF4
:1015D000C0C000C040800407070600001020408003
:1015E000402010050303060002F800F80407070670
:1015F0000100804020102040800507070600007091
:101600008808102000200507070600007088086879
:10161000A8A870050707060000708888F8888888E1
:10162000050707060000F08888F08888F00507079E
:10163000060000708880808088700507070600001B
:10164000F08888888888F0050707060000F8808001
:10165000F08080F8050707060000F88080F08080A1
:1016600080050707060000708880B8888870050725
:1016700007060000888888F888888801070706021E
:101680000080808080808080050707060000381079
:1016900010101090600507070600008890A0C0A0F9
:1016A0009088050707060000808080808080F8050C
:1016B000070706000088D8A88888888805070706D5
:1016C00000008888C8A89888880507070600007069
:1016D000888888888870050707060000F08888F0E9
:1016E00080808005070706000070888888A89068B9
:1016F000050707060000F08888F0A0908805070716
:10170000060000788080700808F0050707060000D2
:10171000F820202020202005070706000088888860
:1017200088888870050707060000888888888850A0
:10173000200507070600008888888888A8500507C4
:101740000706000088885020508888050707060093
:101750000088888850202020050707060000F80828
:1017600010204080F8030707060100E08080808099
:1017700080E00505050600018040201008030707EA
:10178000060100E02020202020E0050303060004DD
:10179000205088050101060000F802020206020539
:1017A0008040050505060000700878887805070761
:1017B0000600008080B0C88888F005050506000096
:1017C0007080808870050707060000080868988800
:1017D00088780505050600007088F8807005070701
:1017E0000600003048E0404040400506060600FF85
:1017F0007088887808700507070600008080B0C8E8
:101800008888880107070602008000808080808029
:101810000308080601FF200020202020A040040724
:1018200007060000808090A0C0A090030707060173
:1018300000C04040404040E0050505060000D0A83B
:10184000A8A8A8050505060000B0C8888888050571
:101850000506000070888888700506060600FFF0FF
:101860008888F080800506060600FF78888878085A
:1018700008050505060000B0C8808080050505063E
:10188000000070807008F00407070600004040E088
:1018900040404030050505060000888888986805A6
:1018A000050506000088888850200505050600000B
:1018B0008888A8A850050505060000885020508893
:1018C0000506060600FF8888887808700505050665
:1018D0000000F8102040F8030707060100204040F0
:1018E00080404020010707060200808080808080C1
:1018F0008003070706010080404020404080050229
:1019000002060002689000000006000020204D3210
:1019100030392053004175746F2D526574726163C4
:10192000743A20533D3020746F2064697361626C97
:10193000652C203120746F20696E74657270726539
:101940007420452D6F6E6C79206D6F766573206104
:101950007320726574726163742F7265636F76654C
:10196000720A0020460020570020204D32303820D7
:1019700053005265636F7665723A20533C6C656E16
:101980006774683E20463C756E6974732F6D3E0A1D
:1019900000205A0020460020570020204D323037CA
:1019A000205300526574726163743A20533C6C6535
:1019B0006E6774683E20463C756E6974732F6D3E89
:1019C000205A3C6C6966743E0A002044002049009D
:1019D00020204D3330342050002044002049002086
:1019E000204D333031205000204400204900205049
:1019F0000020204D3330312045005049442073658C
:101A00007474696E67733A0A002046002042002011
:101A1000480020204D3134352053004D61746572EB
:101A200069616C2068656174757020706172616DA8
:101A300065746572733A0A0020590020580020200E
:101A40004D323138205400486F74656E64206F66E3
:101A500066736574733A0A00205A002059002020EA
:101A60004D323036205800486F6D65206F666673C2
:101A700065743A0A00204500205A00205900205879
:101A80000020420020540020204D323035205300E9
:101A9000416476616E6365643A20533C6D696E5FA4
:101AA00066656564726174653E20543C6D696E5F65
:101AB00074726176656C5F66656564726174653EBB
:101AC00020423C6D696E5F7365676D656E745F740F
:101AD000696D655F75733E20583C6D61785F7879FC
:101AE0005F6A65726B3E205A3C6D61785F7A5F6A0F
:101AF00065726B3E20453C6D61785F655F6A65721B
:101B00006B3E0A0020540020520020204D32303419
:101B1000205000416363656C65726174696F6E206B
:101B200028756E6974732F7332293A20503C707295
:101B3000696E745F616363656C3E20523C726574CC
:101B4000726163745F616363656C3E20543C7472C0
:101B50006176656C5F616363656C3E0A00204500D9
:101B600020204D323031205400205A0020590020CE
:101B7000204D3230312058004D6178696D756D20EF
:101B8000416363656C65726174696F6E2028756E60
:101B90006974732F7332293A0A0020450020204DC2
:101BA000323033205400205A0020590020204D327A
:101BB00030332058004D6178696D756D206665651C
:101BC0006472617465732028756E6974732F73294C
:101BD0003A0A0020450020204D3932205400205A76
:101BE0000020590020204D39322058005374657070
:101BF000732070657220756E69743A0A0020204D5A
:101C00003230302044300A0020204D323030205411
:101C10003120440020204D323030204400204469DF
:101C20007361626C65640A0046696C616D656E740F
:101C30002073657474696E67733A0020204D3134E7
:101C4000392043203B20556E69747320696E204310
:101C5000656C736975730A0020204732312020209B
:101C6000203B20556E69747320696E206D6D0A00EB
:101C7000507265686561742041425320416C6C006C
:101C8000507265686561742041425320456E64203E
:101C900045320050726568656174204142532032BC
:101CA00000507265686561742041425320456E643E
:101CB00020453100507265686561742041425320AF
:101CC000426564005072656865617420414253202A
:101CD000310050726570617265004D3432380050C9
:101CE00072656865617420504C4100436F6F6C648D
:101CF0006F776E00507265686561742041425300D1
:101D000044697361626C6520737465707065727389
:101D1000004D38340053657420686F6D65206F6620
:101D20006673657473004175746F20686F6D65002C
:101D3000473238004D6F76652061786973004D61D8
:101D4000696E004D6F76652058004D6F766520599D
:101D5000004D6F7665205A0045787472756465721F
:101D60003200457874727564657231004D6F766526
:101D700020302E316D6D004D6F766520316D6D0018
:101D80004D6F76652031306D6D004D6F7665206149
:101D9000786973004578747275646572004D6F766A
:101DA00065205A004D6F76652059004D6F7665208D
:101DB00058004578747275646572320045787472A3
:101DC0007564657231004578747275646572004D92
:101DD0006F7665205A004D6F76652059004D6F76FD
:101DE000652058005072657061726500506C6561C5
:101DF0007365207265736574005052494E544552A4
:101E00002048414C544544005072696E74657220FC
:101E100068616C7465642E206B696C6C2829206382
:101E2000616C6C6564210A001FFFFFFFFFFFFF600C
:101E30000000000001FF400000000000FF800000E3
:101E40000000007F83CF00000C303F87FF80000C34
:101E5000301F867980000C000F8C30C7838C30E7F0
:101E60008C30CFC7CC31F38C30DCECEC33B98C3018
:101E7000D86C6C33198C30D06C0C33198C30D86C16
:101E80000C33198C30DC6C0E3B198C30CF7C079FE7
:101E9000198C30C77C038F194000000000000260DD
:101EA0000000000000061FFFFFFFFFFFF82020508A
:101EB0006C616E6E657242756666657242797465B4
:101EC000733A20002046726565204D656D6F72790A
:101ED0003A2000436F6D70696C65643A204F6374FB
:101EE00020323520323031380A00207C2041757490
:101EF000686F723A20286E6F6E652C20646566618B
:101F0000756C7420636F6E666967290A0032303120
:101F1000372D31322D32352031323A303000204CDD
:101F200061737420557064617465643A2000312EC9
:101F3000312E380A004D61726C696E0020536F6655
:101F400074776172652052657365740A0020576169
:101F5000746368646F672052657365740A00204279
:101F6000726F776E206F75742052657365740A0006
:101F70002045787465726E616C2052657365740AD1
:101F800000506F77657255700A0073746172740A3D
:101F9000005761726E696E673A20486F6D696E67AF
:101FA0002042756D702044697669736F72203C2001
:101FB000310A000202040000A0400000A04000001E
:101FC0000040CD4C5C430000544300004843416353
:101FD000746976652045787472756465723A20007C
:101FE00048617264636F6465642044656661756C02
:101FF000742053657474696E6773204C6F616465F7
:10200000640A00E8030000E8030000640000001018
:1020100027000000007A4400007A4400004040009D
:1020200000C8410000C841C9B61F4348112143F907
:10203000BA9F45DC1C5444CD3CD244486F6D6520AA
:102040002573257325732066697273740020666991
:102050007273740A005A0059005800486F6D652069
:10206000006563686F3A0000004842000048420083
:10207000008040000000004572726F723A004265B5
:102080006420646F6E652E0020573A00426564201C
:1020900048656174696E672E00205A3A0020593AEB
:1020A0000020436F756E7420583A0020453A002096
:1020B0005A3A0020593A00583A003A004361703ABF
:1020C00000526573656E643A20006F6B0020746F78
:1020D0006F206C6F6E6720657874727573696F6EB0
:1020E0002070726576656E7465640A0020636F6C9B
:1020F0006420657874727573696F6E20707265768E
:10210000656E7465640A004B494C4C45442E2000B2
:102110004B494C4C20636175736564206279204B98
:10212000494C4C20627574746F6E2F70696E0A0092
:102130004B494C4C45442E20004B494C4C2063618C
:102140007573656420627920746F6F206D756368A4
:1021500020696E6163746976652074696D65202DF0
:102160002063757272656E7420636F6D6D616E644D
:102170003A20005320556E52657420560053205566
:102180006E5265742056005320556E526574205669
:1021900000556E526574205600556E526574205677
:1021A00000556E5265742056005320556E5265746A
:1021B000206D6D005320556E526574206D6D005575
:1021C0006E526574206D6D00556E526574206D6D94
:1021D00000486F70206D6D00486F70206D6D00526B
:1021E0006574726163742020560052657472616375
:1021F000742020560052657472616374202056006A
:10220000537761702052652E6D6D00537761702099
:1022100052652E6D6D0052657472616374206D6D30
:102220000052657472616374206D6D004F666600C4
:102230004F6E20004175746F526574722E00436FAB
:102240006E74726F6C0020746F6F206C6F6E6720FD
:10225000657874727573696F6E2070726576656EDD
:102260007465640A0020636F6C642065787472750D
:1022700073696F6E2070726576656E7465640A00AE
:102280001000C90210012C01400122017001180147
:10229000B0010E01F00104015002FA00B002F0009A
:1022A0003003E600D003DC009004D2007005C800C3
:1022B000A006BE000008B400B009AA00D00BA00020
:1022C000600E960060118C000015820020197800C5
:1022D000C01D6E00A0226400B0275A00902C500050
:1022E00000314600E0343C0010383200903A2800BB
:1022F000603C1E00A03D1400803E0A00203F00000C
:102300003039780080397300C0396E00303A6A0085
:10231000B03A6400203B5F00903B5A00D03B550030
:10232000703C5000A03C4B00003D4600F03D3700A3
:10233000303E3200803E2D00A03E2800D03E2300DB
:10234000003F1E00203F1900403F1100703F0C006D
:10235000544845524D414C2052554E415741590029
:10236000546865726D616C2052756E617761790099
:102370004572723A204D494E54454D5020424544D5
:10238000004572723A204D494E54454D50004D491A
:102390004E54454D502074726967676572656400DC
:1023A0004572723A204D415854454D5020424544A3
:1023B000004572723A204D415854454D50004D41F0
:1023C0005854454D502074726967676572656400A2
:1023D000202F002040002042403A0020403A0000D8
:1023E000060900FE000000000001090008FE0000D0
:1023F00005080806000040F0C8888898781005088D
:1024000008060000C0F88888888888F80505050651
:1024100000012030F830200508080600002070F880
:1024200020202020E00509090600FF2070A8A8B898
:10243000888870200509090600FFE080C0B0A82840
:102440003028280509090600FFF8A88888888888A8
:10245000A8F8050A0A0600FE205050505088A8A887
:10246000887003030306000340A0405A0059005837
:102470000009200000000000000000000000000033
:102480007FFFE0000000000000000000000000707E
:1024900000E000000000000000000000000061F803
:1024A0006000000000000000000000000041F82073
:1024B00000000000000000000000000040F02000CC
:1024C000000000000000000000000040602000004C
:1024D000000000000000000000005801A07F800004
:1024E0003FC0000000004104005C63A0FBC0007915
:1024F000E0000000002082005EF7A0F3C00076E05C
:10250000000000002082005EF7A0EBC0007EE0002B
:102510000000004104005C63A07B80003DC000001F
:1025200000008208005801A07B80003BC000000032
:1025300001041000406020FBC00077E000000001B3
:1025400004100040F020FBC00070E000000000829A
:10255000080041F820FFC0007FE0000000004104B7
:102560000061F8603F00001F8000000000000000D4
:102570007000E01E00000F0000000001FFFF807FE0
:10258000FFE00C0000060000000001FFFF800000DB
:10259000000000000000000000000000007FFFE0DD
:1025A0000000000000000000000000007000E000DB
:1025B0000000000000000000000000630C6000004C
:1025C00000000000000000000000470E2000000096
:1025D0000000000000000000004F0F20000000007D
:1025E00000000000000000005F0FA00000000000DD
:1025F000000000000000005E07A07F80003FC000D8
:10260000000000410400406020FBC00079E00000B1
:10261000000020820040F020F3C00076E0000000BF
:102620000020820040F020EBC0007EE000000000AF
:102630004104004060207B80003DC000000000821B
:1026400008005E07A07B80003BC000000001041072
:10265000005F0FA0FBC00077E00000000104100045
:102660004F0F20FBC00070E0000000008208004710
:102670000E20FFC0007FE000000000410400630C5A
:10268000603F00001F80000000000000007000E0BC
:102690001E00000F0000000001FFFF807FFFE00C24
:1026A0000000060000000001FFFF800000000000A5
:1026B0002100240027002A002D00300033000101F2
:1026C0000000040107010A01000022002500280083
:1026D0002B002E003100340002010000050108012A
:1026E0000B01000020002300260029002C002F00F1
:1026F000320000010000030106010901050505057E
:10270000070508080808020202020A0A0808040469
:102710000404010101010101010103030303030397
:102720000303040707070C0C0C0C0C0C0C0C020226
:10273000020206060606060606060B0B0B0B0B0B23
:102740000B0B0102102020080810204010204080B0
:102750000201020108040201010204081020408065
:1027600080402010080402018004020180402010F3
:10277000080402010804020101020408102040803C
:10278000010204081020408000000A0B02090C0D11
:102790000E08070304010000000000000000000014
:1027A0000000000000000000000000000000000029
:1027B00000000000121110000000000000000000E6
:1027C0000000000000000000000000000000436F57
:1027D0006E74726F6C005072657061726500547532
:1027E0006E6500496E666F2073637265656E0046A4
:1027F0006C6F77203200466C6F77203200466C6F2A
:1028000077203200466C6F77203100466C6F77205E
:102810003100466C6F77203100466C6F7700466C54
:102820006F7700466C6F770046616E207370656548
:10283000640046616E2073706565640046616E20B9
:1028400073706565640042656400426564004265BA
:1028500064004E6F7A7A6C652032004E6F7A7A6C23
:10286000652032004E6F7A7A6C652032004E6F7AA6
:102870007A6C652031004E6F7A7A6C652031004E9B
:102880006F7A7A6C6520310053706565640053700F
:10289000656564005370656564004D61696E005044
:1028A00072656865617420504C4120416C6C005029
:1028B00072656865617420504C4120456E64204506
:1028C00032005072656865617420504C41203200BE
:1028D0005072656865617420504C4120456E6420DB
:1028E0004531005072656865617420504C4120424A
:1028F0006564005072656865617420504C412031F8
:102900000050726570617265004B6420002364653D
:1029100066696E65202044454641554C545F004B26
:1029200069200023646566696E6520204445464140
:10293000554C545F004B70200023646566696E65DA
:10294000202044454641554C545F005049442041A5
:1029500075746F74756E652066696E6973686564F9
:10296000212050757420746865206C617374204B4D
:10297000702C204B6920616E64204B6420636F6E65
:102980007374616E74732066726F6D2062656C6F14
:102990007720696E746F20436F6E66696775726128
:1029A00074696F6E2E680A00504944204175746F37
:1029B00074756E65206661696C6564212074696D4B
:1029C000656F75740A00544845524D414C2052556C
:1029D0004E4157415900546865726D616C205275C3
:1029E0006E617761790048656174696E6720666120
:1029F000696C65640048656174696E672066616929
:102A00006C656400504944204175746F74756E653F
:102A1000206661696C6564212054656D7065726122
:102A20007475726520746F6F20686967680A00208A
:102A30004B643A2000204B693A2000204B703A202A
:102A4000000A20436C617373696320504944200A73
:102A5000002054753A2000204B753A2000206D610B
:102A6000783A2000206D696E3A200020643A2000F8
:102A700020626961733A20006265640A002C207349
:102A8000797374656D2073746F707065642120486C
:102A900065617465725F49443A20004865617469F4
:102AA0006E67206661696C65640048656174696E73
:102AB00067206661696C65640048656174696E676A
:102AC000206661696C65640048656174696E6720A1
:102AD0006661696C6564007A5F6D696E3A200079A1
:102AE0005F6D696E3A2000785F6D696E3A20005222
:102AF00065706F7274696E6720656E6473746F7051
:102B0000207374617475730A00003CBB11241FBEEE
:102B1000CFEFD1E2DEBFCDBF00E00CBF13E0A0E0FD
:102B2000B2E0EEE5F6E901E00BBF02C007900D92BE
:102B3000A238B107D9F72FE0A2E8B3E001C01D9297
:102B4000AE39B207E1F715E1C6E8D5E100E006C00D
:102B500021970109802FFE010E94D2CAC538D107F2
:102B600080E00807A9F70E94C1A50C942DCB0C9416
:102B700000008FB7F89490917D0D20917C0D9217F5
:102B800059F0E92FF0E0E450F34F208130E09F5FEF
:102B90009F7790937D0D02C02FEF3FEF8FBFC9014C
:102BA00008950F931F93CF93DF93EC010E946BA5C1
:102BB0000E811F81288539850115110521053105F3
:102BC00059F52C852223A9F13A8521502C8721E043
:102BD000230F2A874D85241301C01A86FE0124E0A5
:102BE000329FE00DF11D112406851785208931895A
:102BF0000A831B832C833D83DC01CB01800F911F53
:102C0000A11DB11D8E839F83A887B9878C819D816B
:102C1000892B79F0409A0DC0DC01CB01801B910B10
:102C2000A20BB30BB7FD05C040981E821F82188609
:102C30001986DF91CF911F910F910895FF920F9305
:102C40001F93CF93DF93FC0120812B3319F1D09197
:102C50008506D430F8F4F62EBC01C09193060C2FF3
:102C600010E0F0E6CF9FC00111248D519B4F0E94D0
:102C70000CCBF801E75CF34FF082CF5FC43018F45F
:102C8000C093930602C010929306DF5FD09385062F
:102C900081E001C080E0DF91CF911F910F91FF9003
:102CA0000895EF920F931F93E0903D0C06E312E01E
:102CB0002DE53CE049E55CE065E57CE081E59CE0F4
:102CC0000E94CD7E1F910F91EF9008950F931F9357
:102CD000CF93DF93EC01CC0FDD1FCC0FDD1F8E01F6
:102CE00003581B4FFE01E153FB4FDE01A056BC4FC2
:102CF0002D913D914D915C91608171818281938193
:102D00000E94CBC7F8016083718382839383FE01A5
:102D1000E951F84F85919591A591B491FE01E7573E
:102D2000FB4F80839183A283B383FE01ED50F84F64
:102D300085919591A591B491CC5FDD4F888399835E
:102D4000AA83BB83DF91CF911F910F910895CF92FA
:102D5000DF92EF92FF92E0913D0CE0930407C09068
:102D60005D0CD0905E0CE0905F0CF090600CED5F1D
:102D700084E0E89FF0011124EF51FC4F2081318164
:102D800042815381C701B6010E941CC40E94FCC944
:102D90006093C80C7093C90C8093CA0C9093CB0CB1
:102DA000C701B6010E940FC92FB7F89460934C0F6A
:102DB00070934D0F80934E0F90934F0F2FBF109233
:102DC000B80C1092B90C1092BA0C1092BB0CFF9078
:102DD000EF90DF90CF9008952DE53CE049E55CE071
:102DE00065E57CE081E59CE00C94C6314F925F92F2
:102DF0006F927F928F929F92BF92CF92DF92EF92CB
:102E0000FF920F931F93CF93DF9300D01F92CDB704
:102E1000DEB72A013B01B22EF32E6C01CC0CDD1C77
:102E2000CC0CDD1CC6018F5A934F4C01FC01108263
:102E3000118212821382D0DFF401408251826282B9
:102E40007382E0903D0C20E030E0A901B8018B2DA9
:102E50009F2D0E94B7C381110AC0F601E959FF4DA9
:102E600085919591A591B4918C01BA2EFB2EC80144
:102E7000AB2DBF2D89839A83AB83BC838E010F5FFB
:102E80001F4F2DE53CE049E55CE065E57CE081E530
:102E90009CE00E94CD7E0E946DA2109283060F904E
:102EA0000F900F900F90DF91CF911F910F91FF9096
:102EB000EF90DF90CF90BF909F908F907F906F901A
:102EC0005F904F900895809191069091920600979F
:102ED00031F04AE050E060E070E00C94FEC160E048
:102EE00070E0CB0108958091910690919206009731
:102EF00031F04AE050E060E070E00C94D3C060E054
:102F000070E0CB010895EFDF97FD0AC0ECDF6F3F63
:102F100071058105910509F02CF4E5DF862F0895F0
:102F200080E008958FEF0895809191069091920628
:102F3000892B31F0E8DF91E0811103C090E001C0FE
:102F400091E0892F08950F931F93CF93809191065D
:102F5000909192060097F1F0FC018F01C1912C2F06
:102F60002F7D89F0C53411F0C536B9F7F80110820C
:102F700060E070E00E9480BFF801C083562F472FA9
:102F8000382F292F0BC060E070E0CF911F910F9177
:102F90000C9480BF50E040E030E020E0652F742FBB
:102FA000832F922FCF911F910F91089581548A31D1
:102FB00050F5482F50E0FA0193E0F595E7959A9582
:102FC000E1F7E456FC4F208130E0877002C0359570
:102FD00027958A95E2F7822F817020FF15C0FA01AC
:102FE000EE57FC4F9081992339F02091DB0430910A
:102FF000DC04290F311D02C020E030E0309392063E
:1030000020939106089580E00895D0DF882341F051
:1030100081E02091910630919206232B09F480E003
:1030200008954F925F926F927F929F92AF92BF925C
:10303000CF92DF92EF92FF920F931F93CF93DF9384
:103040008CE9A82E82E0B82E01E41CE0C1E5DCE0AA
:103050009DE7C92E94E0D92E2DEDE22E24E0F22E2C
:10306000912CF50181915F01A1DF882361F16BDF74
:103070009B01AC01F7018081811104C08091E104C2
:10308000882329F0688179818A819B8103C060E06F
:1030900070E0CB010E94CBC7F3E09F1659F0F60118
:1030A00020813181428153812B013C01C301B20156
:1030B0000E94CAC7462F572FBC01F8014083518395
:1030C0006283738309C088819981AA81BB81F801D9
:1030D00080839183A283B38393940C5F1F4F2496C4
:1030E000F4E0CF0ED11C2FEFE21AF20A84E098121E
:1030F000B8CF86E48ADF8823B9F025DF20E030E00E
:10310000A9010E94F1C918167CF41DDF20E030E00F
:1031100040E752E40E94A7C86093360270933702DA
:103120008093380290933902DF91CF911F910F91D4
:10313000FF90EF90DF90CF90BF90AF909F907F90E7
:103140006F905F904F9008952091CC0C9091CD0C92
:1031500081E0291301C080E0089580E1E1E5FCE011
:10316000A1E4BCE001900D928A95E1F708954F9299
:103170005F926F927F928F929F92AF92BF92CF9207
:10318000DF92EF92FF92CF93DF9300D000D0CDB7C4
:10319000DEB78D836E8380913D0C90E0FC01E65894
:1031A000FB4F20813D81231709F493C1662339F039
:1031B000FC01E350F94F2081321709F48AC1AD8137
:1031C000A11105C0FC01E350F94FB081BE8380908E
:1031D0005E0490905F04A0906004B09061048091C0
:1031E000360290913702A0913802B091390289835A
:1031F0009A83AB83BC83B1DF0E946DA2E0913D0C4A
:1032000094E0E99FF0011124E05FFD4F20813181BE
:103210004281538160E070E080E89FE30E94A7C88C
:103220006B017C01AD81AA2309F497C080916204EF
:1032300090916304A0916404B09165048093360278
:1032400090933702A0933802B093390240905D0CFE
:1032500050905E0C60905F0C7090600CBE81BB2340
:1032600049F060915A0470915B0480915C049091E4
:103270005D0408C0609166047091670480916804E1
:1032800090916904A70196010E941CC4A3019201B8
:103290000E94CBC760935D0C70935E0C80935F0CB3
:1032A0009093600C54DD0E9473652AE037ED43E291
:1032B0005CE3C501B4010E94F1C918160CF0EEC020
:1032C0008090F9069090FA06A090FB06B090FC065C
:1032D00020E030E0A901C501B4010E94B7C381110B
:1032E000DDC0C0905E04D0905F04E0906004F09078
:1032F0006104A7019601C501B4010E94CBC7609388
:10330000F9067093FA068093FB069093FC06809171
:10331000260490912704A0912804B0912904809359
:10332000360290933702A0933802B0933902A70176
:1033300096016091590C70915A0C80915B0C9091A0
:103340005C0C0E94CAC76093590C70935A0C80930E
:103350005B0C90935C0C40DD9FC020E030E0A90145
:103360006091F9067091FA068091FB069091FC0637
:103370000E94B7C38823A9F120915E0430915F04B5
:1033800040916004509161046091590C70915A0C05
:1033900080915B0C90915C0C0E94CBC76093590CA0
:1033A00070935A0C80935B0C90935C0C15DD8091AC
:1033B000260490912704A0912804B09129048093B9
:1033C000360290933702A0933802B09339020E94DC
:1033D00073651092F9061092FA061092FB0610928D
:1033E000FC062E81222349F080916E0490916F0497
:1033F000A0917004B091710408C080917204909102
:103400007304A0917404B091750480933602909374
:103410003702A0933802B09339023E81332389F0FA
:1034200020916A0430916B0440916C0450916D04BA
:1034300060915A0470915B0480915C0490915D04EA
:1034400010C0209176043091770440917804509117
:10345000790460916604709167048091680490918A
:1034600069040E94CBC7A70196010E941CC49B015E
:10347000AC0160915D0C70915E0C80915F0C90913D
:10348000600C0E94CAC760935D0C70935E0C8093C1
:103490005F0C9093600C5BDC0E94736589819A815C
:1034A000AB81BC818093360290933702A09338029F
:1034B000B093390280913D0C90E0FC01E658FB4F3F
:1034C000AD81A083BE81BB2321F0FC01E350F94F05
:1034D000A08326960FB6F894DEBF0FBECDBFDF9156
:1034E000CF91FF90EF90DF90CF90BF90AF909F90E3
:1034F0008F907F906F905F904F90089580E1E1E40E
:10350000FCE0A1E5BCE001900D928A95E1F70895F9
:103510000E946BA56093AC037093AD038093AE03E0
:103520009093AF0308959091C00095FFFCCF8093D6
:10353000C6000895CF92DF92EF92FF920F931F93F0
:10354000CF93DF9380918506843008F01EC111DB94
:10355000AC0197FD1AC1982F2091610C3091620C3B
:103560008A3019F09D3009F0DFC01092F80621155D
:10357000310541F3F901E856F94F10821092620CBF
:103580001092610CC8E9D6E0FE018191803211F4FD
:10359000EF01FACF8E3409F07EC0209709F47BC08A
:1035A0006FEC77E0CE010E9437C38C01892B41F08C
:1035B0006EE470E0CE0104960E94F8CA009709F408
:1035C000CE014AE050E060E070E001960E94D3C076
:1035D0006093940670939506809396069093970651
:1035E000C090630CD090640CE090650CF090660C79
:1035F0002FEFC21AD20AE20AF20A6C157D058E0577
:103600009F0529F0012B19F48CE997E02AC06AE2A2
:1036100070E0CE010E9422CB9C01009701F1982F0F
:103620009C1B10E0992339F09150FE01E90FF11D28
:1036300080811827F7CF4AE050E060E070E0C901D0
:1036400001960E94D3C0012F10E020E030E0601707
:1036500071078207930779F08DE797E002C083E551
:1036600097E0DF91CF911F910F91FF90EF90DF9046
:10367000CF900C94CE5C8091940690919506A09189
:103680009606B09197068093630C9093640CA09378
:10369000650CB093660C80911E02811121C067E415
:1036A00070E0CE010E94F8CA0097D1F04AE050E0E5
:1036B00060E070E001960E94D3C06430710580F430
:1036C000ECEDF6E084918F010F5F1F4F882319F016
:1036D0002ADFF801F7CF60E082ED96E00E94F54224
:1036E00060EF72E0CE010E9403CB892B21F410928F
:1036F0001F021092B00365EF72E0CE010E9403CB6F
:10370000892B21F489EC96E00E94EF5A6AEF72E06F
:10371000CE010E9403CB892B11F40E94DF6661E089
:1037200088E996E08BDA0ECF2F3531050CF00ACF01
:103730009C35B9F41EDA97FD05CF2091F8062111CA
:1037400001CF2091610C3091620CA9014F5F5F4F56
:103750005093620C4093610CF901E856F94F808355
:10376000F1CE9B3319F481E08093F8068091F8063E
:103770008111E8CEC90101969093620C8093610C8F
:10378000F901E856F94F4083DDCEDF91CF911F91CB
:103790000F91FF90EF90DF90CF900895BF92CF925E
:1037A000DF92EF92FF920F931F93CF93DF93CDB7EA
:1037B000DEB76E970FB6F894DEBF0FBECDBF609137
:1037C0002D0C70912E0C6115710551F14DE150E0F9
:1037D000CE0101967C010E9428C31E8EF7018F0145
:1037E0000E191F09B190BB2021F19AE0B912F7CF51
:1037F00020C0B7018CEB96E00E94973082E293DE06
:103800008AE091DEBB2051F10F5F1F4F80912D0C9C
:1038100090912E0C080F191F10932E0C00932D0C55
:1038200081E020912D0C30912E0C232BD1F480E0DF
:1038300018C0F701E00FF11F108260E0C701FED948
:10384000882371F3E1E6F0E284916F019FEFC91ADA
:10385000D90A882371F267DEF601F6CF00E010E0A6
:10386000DBCF6E960FB6F894DEBF0FBECDBFDF91F3
:10387000CF911F910F91FF90EF90DF90CF90BF906D
:1038800008958F929F92AF92BF92EF92FF920F9303
:103890001F93CF93DF93CDB7DEB7A0970FB6F89401
:1038A000DEBF0FBECDBF611571058105910589F1A0
:1038B00000E0842E912CA12CB12C102FEE24E39447
:1038C000F12CEC0EFD1EE00EF11C07FDFA94A50193
:1038D00094010E948FC7F7016083B901CA010F5F8D
:1038E000611571058105910541F71F3F21F1E1E067
:1038F000F0E0EC0FFD1FE10FF11D17FDFA9580813F
:103900008A3010F097E301C090E3890F0CDE11506C
:10391000ECCF80E3A0960FB6F894DEBF0FBECDBF0C
:10392000DF91CF911F910F91FF90EF90BF90AF90DB
:103930009F908F90F8CDA0960FB6F894DEBF0FBE83
:10394000CDBFDF91CF911F910F91FF90EF90BF906E
:10395000AF909F908F900895EF92FF920F931F93D7
:10396000CF93DF937C0184E550DBD82F882321F1AE
:10397000CADAC82F8230E4F0E1E6F0E284918F01E8
:103980000F5F1F4F882319F0CEDDF801F7CF8DE4CC
:10399000CADDB70180E090E04AE073DF6C2FCC0F06
:1039A000770B84ED97E00E947E308AE0BCDD08C092
:1039B0008093CE04D0E004C080913D0C8093CE046F
:1039C0008D2FDF91CF911F910F91FF90EF90089570
:1039D000CF92DF92EF92FF926B017C0197FF0AC0BA
:1039E0008DE2A1DDF094E094D094C094C11CD11C70
:1039F000E11CF11C4AE0C701B601FF90EF90DF9097
:103A0000CF903FCF2F923F924F925F926F927F92D3
:103A10008F929F92AF92BF92CF92DF92EF92FF92DE
:103A20000F931F93CF93DF93CDB7DEB72F970FB6CA
:103A3000F894DEBF0FBECDBF8DE690E08DDF811123
:103A4000BBC18091E20483FDB7C183E5DEDA382E85
:103A5000811105C082E5D9DA882309F4ADC173DA92
:103A60001091CE04E12FF0E0EE0FFF1FE754FC4F62
:103A7000FA83E9830E940FC9A981BA816D937C936F
:103A8000812F0E945D865FDA20E030E04AEA52E44E
:103A90000E94B7C3181644F00E94615B60E088E1A1
:103AA00098E00E94F54202C00E94995E2091CE04E7
:103AB000422F50E05A834983FA01EE0FFF1FE7546B
:103AC000FC4F60817181072E000C880B990B0E94BE
:103AD000BDC3E981FA81EE0FFF1FEE0FFF1FEF5408
:103AE000FC4F20813181428153810E94F1C9181617
:103AF000ACF484ED92E09F938F9389819A81019633
:103B00009F938F9381E198E09F938F931F920E94E0
:103B10007A5B0FB6F894DEBF0FBECDBF0E94223194
:103B200081E080931F0219821A821B821C821D82EF
:103B30001E821F821886512C1986BCE3BA87ECE1DD
:103B4000EB87F6E4FC8710E000E050E8752E6FEBA1
:103B5000662E812C912C5401E090CE04F12CF701BB
:103B6000EE0FFF1FE754FC4F60817181072E000CA0
:103B7000880B990B0E94BDC36B018F879D879B01AA
:103B8000AC01612F702F872D962D0E94B7C388231B
:103B900009F446C0F701EE0FFF1FEE0FFF1FEF54B1
:103BA000FC4F2081318142815381B6018F859D85F3
:103BB00031100BC00E94B7C3582E551C5524551CFC
:103BC0001C2D0D2D7F846D842BC00E94B7C387FFF1
:103BD00022C080911F02882309F4EEC060E08FEFBD
:103BE00097E02F960FB6F894DEBF0FBECDBFDF91E2
:103BF000CF911F910F91FF90EF90DF90CF90BF90EA
:103C0000AF909F908F907F906F905F904F903F907C
:103C10002F900C94F5421C2D0D2D7F846D84512C1A
:103C20000E946BA56B017C01DC01CB012D813E81E3
:103C30004F815885821B930BA40BB50BB7FD38C081
:103C4000D701C60188519C4FAF4FBF4F8D839E83D4
:103C5000AF83B8870E943E82EDE0F8E08491DF01F7
:103C60001196BE87AD87882321F05DDCED85FE854A
:103C7000F5CF81149104A104B104B1F0D501C401C0
:103C8000805F984DAF4FBF4FBC01CD016C197D09CE
:103C90008E099F0928EE33E040E050E00E948FC774
:103CA000CA01B90195DE02C08FE33DDC8AE03BDC4E
:103CB0000E9443632DDCE091CE04B4E0EB9FF00161
:103CC0001124EF54FC4F408021812F8732813D87A2
:103CD0002380242D3F854D85522D612F702F872DF8
:103CE000962D0E94CAC79F7781149104A104B10444
:103CF00049F420E030E040E85FE30E94B7C387FF6B
:103D00000BC008C020E030E040E450E40E94F1C95C
:103D1000181614F4460157015520B1F189819A8192
:103D2000AB81BC81892B8A2B8B2B61F0D701C6011B
:103D300029813A814B815C81821B930BA40BB50BCB
:103D4000B7FD22C0242D3F854D85522D69857A858A
:103D50008B859C850E94CAC720E030E040EC5FE381
:103D60000E94B7C387FD35CFD701C601805A954160
:103D7000AF4FBF4F89839A83AB83BC8349869F85AE
:103D80009A87AD85AB872C8680911F02882309F422
:103D900020CF81149104A104B10409F4DDCEB0E177
:103DA000CB1AB7E2DB0AE108F108C818D908EA081B
:103DB000FB08F7FE0ECFD0CE2F960FB6F894DEBFDD
:103DC0000FBECDBFDF91CF911F910F91FF90EF906C
:103DD000DF90CF90BF90AF909F908F907F906F902B
:103DE0005F904F903F902F9008958F929F92AF9247
:103DF000BF92CF92DF92EF92FF92CF936B017C0143
:103E0000B42E20E030E0A9010E94B7C387FF06C0AE
:103E10008DE289DBF7FAF094F7F8F094C0E060E007
:103E200070E080E09FE3CB1541F02DEC3CEC4CECD6
:103E30005DE30E941CC4CF5FF6CF9B01AC01C701BC
:103E4000B6010E94CBC76B017C010E9414C94B01D3
:103E50005C014AE016DDCC2379F1C501B4010E9472
:103E6000BBC39B01AC01C701B6010E94CAC76B016D
:103E70007C018EE258DB20E030E040E251E4C701F3
:103E8000B6010E941CC44B015C010E940FC96B016A
:103E9000770FEE08FF08C701B6019ADDC701B6012A
:103EA0000E94BDC39B01AC01C501B4010E94CAC7F9
:103EB0006B017C01C150F9F6CF91FF90EF90DF903C
:103EC000CF90BF90AF909F908F9008951F920F92C8
:103ED0000FB60F9211240BB60F922F938F939F93CF
:103EE000EF93FF93E0917C0D81E08E0F8F7790919F
:103EF000C60020917D0D821731F0F0E0E450F34FC1
:103F0000908380937C0DFF91EF919F918F912F91E2
:103F10000F900BBE0F900FBE0F901F901895EF9251
:103F2000FF920F931F93CF93DF931092170C809102
:103F3000220E9091230EA091240EB091250E813077
:103F40009048A105B10540F01092220E1092230E68
:103F50001092240E1092250EC091220E809103071C
:103F60001816DCF4282F082E000C330B21503109D1
:103F70004C2F0C2E000C550B4217530774F0CFEF4B
:103F8000C80F8C2F90E0A0E0B0E08093220E9093B9
:103F9000230EA093240EB093250E1092910D8091C4
:103FA000900DC81714F4C093900D8091900D082EB9
:103FB000000C990B04962C2F0C2E000C330B82173F
:103FC000930724F48CEF8C0F8093900D1091900D3B
:103FD000D0E083E0E82EFF24F39411111DC08091FE
:103FE000190C811106C080913A02882309F442C05D
:103FF00009C0C111F8CF0E9408888091910D8823D3
:1040000091F3E6C081E0C11180E024E043E45AE08E
:104010006D2F0E9435422EC0113061F58091190C30
:10402000811105C080913A02811111C023C0C130B5
:10403000C9F7809109048C2780930904E0923A0221
:104040000E9443728091910D882361F3C1C08091D9
:104050000904811103C022E33AE002C026E33AE0FA
:1040600081E0C13009F080E001E04AE35AE06D2FC1
:104070000E944ABC80910904882309F49EC0123032
:10408000D1F58091190C811106C080913A028823E4
:1040900009F49CC01DC0C230C1F7F092170C1092F9
:1040A000130C1092140C1092150C1092160C6091B7
:1040B0003D0C84E0689FB00111246F5F7B4F88E264
:1040C0009AE00E9424BE8091910D8823F1F280C075
:1040D00080913D0C24E0829FC00111248F5F9B4F93
:1040E0000E941B8E9C0181E0C23009F080E000E05C
:1040F0004EE15AE02FC0133089F58091190C8111DF
:1041000006C080913A02882309F460C017C0C3300A
:10411000C1F7F092170C1092130C1092140C10921D
:10412000150C1092160C61E074E082E19AE00E9496
:1041300024BE8091910D882321F34AC081E094E050
:104140000E941B8E9C0181E0C33009F080E000E0FA
:1041500046E05AE06D2F0E944ABC38C01430B1F5D9
:104160008091190C811105C080913A02882371F168
:1041700017C0C430C9F7F092170C1092130C1092AC
:10418000140C1092150C1092160C65E074E08AEF76
:1041900099E00E9424BE8091910D882329F318C0D4
:1041A00085E094E00E941B8E9C0181E0C43009F000
:1041B00080E000E04EEE59E0CDCF82E0DF5F1F5F90
:1041C000D53009F00ACF8093030702C085E0F6CF0F
:1041D000DF91CF911F910F91FF90EF9008951F9362
:1041E000CF93DF931092170C8091220E9091230EA3
:1041F000A091240EB091250E81309048A105B10503
:1042000040F01092220E1092230E1092240E109263
:10421000250EC091220E809102071816DCF4282F7B
:10422000082E000C330B215031094C2F0C2E000CA2
:10423000550B4217530774F0CFEFC80F8C2F90E047
:10424000A0E0B0E08093220E9093230EA093240E62
:10425000B093250E1092910D8091900DC81714F413
:10426000C093900D8091900D082E000C990B049630
:104270002C2F0C2E000C330B8217930724F48CEF99
:104280008C0F8093900D1091900DD0E011111AC0F9
:104290008091190C811106C080913A02882309F49B
:1042A00062C009C0C111F8CF0E9408888091910DA9
:1042B000882391F389C081E0C11180E024E046EEBB
:1042C00059E04EC01130E9F48091190C811106C0FB
:1042D00080913A02882309F446C00BC0C130C1F76F
:1042E00086EE92E30E94BD458091910D882381F373
:1042F0006BC081E0C13009F080E023E04DED59E072
:104300002FC01230E1F48091190C811105C0809109
:104310003A02882341F10BC0C230C9F788EE91E21E
:104320000E94BD458091910D882389F34DC081E0A5
:10433000C23009F080E023E040ED59E011C01330B5
:1043400029F58091190C811116C080913A028823B9
:1043500051F081E0C33009F080E023E04BEC59E0FC
:104360006D2F0E943542DF5F1F5FD53009F08ECF81
:10437000D093020729C0C33041F78AE297E20E9436
:10438000BD458091910D882301F31EC0143059F76B
:104390008091190C811105C080913A02882319F38C
:1043A0000BC0C430C9F786ED94E20E94BD458091F0
:1043B000910D882389F308C081E0C43009F080E0C2
:1043C00023E042EC59E0CCCFDF91CF911F910895CB
:1043D0002F924F926F927F928F929F92AF92BF9245
:1043E000CF92DF92EF92FF920F931F93CF93DF93C1
:1043F0001092170C8091220E9091230EA091240E02
:10440000B091250E81309048A105B10540F0109281
:10441000220E1092230E1092240E1092250EC0919F
:10442000220E8091FF061816DCF4282F082E000CAF
:10443000330B215031094C2F0C2E000C550B421719
:10444000530774F0CFEFC80F8C2F90E0A0E0B0E0DE
:104450008093220E9093230EA093240EB093250EEA
:104460001092910D8091900DC81714F4C093900D87
:104470008091900D082E000C990B04962C2F0C2E79
:10448000000C330B8217930724F48CEF8C0F80936E
:10449000900DD091900D412C2224239488E6682E13
:1044A00088E0782E9DE7E92E98E0F92E24E8C22EC8
:1044B00028E0D22E32E9A32E38E0B32E49E9842E2B
:1044C00048E0942ED1111DC08091190C811106C0B5
:1044D00080913A02882309F48DC009C0C111F8CF38
:1044E0000E9408888091910D882391F34EC281E04B
:1044F000C11180E024E049ED58E0642D0E9435426E
:1045000079C0D13041F58091190C811106C080919C
:104510003A02882309F46EC011C0C130C1F720E00F
:1045200030E040E251E46AE374E083ED98E00E94F9
:104530007BBE8091910D882351F327C28AE394E0DA
:104540000E94ED3F9C0181E0C13009F080E000E075
:104550004DEC58E040C0D23041F58091190C8111EA
:1045600006C080913A02882309F444C011C0C230C9
:10457000C1F720E030E048EC52E462E374E083EC01
:1045800098E00E947BBE8091910D882351F3FDC17C
:1045900082E394E00E94ED3F9C0181E0C23009F08B
:1045A00080E000E049EB58E016C0D330C1F48091C0
:1045B000190C811128C080913A028823D9F086E332
:1045C00094E00E94ED3F9C0181E0C33009F080E05F
:1045D00000E047EA58E0642D0E944ABC0BC0D4308A
:1045E00009F05BC08091190C81111EC080913A02C4
:1045F00081112DC04394DF5F95E0491263CF8AE0BB
:104600008093FF06C2C1C330B1F620E030E048EC31
:1046100052E466E374E080EB98E00E947BBE8091F8
:10462000910D882341F2B1C1C43001F704E016E3D3
:1046300024E630E040E050E06AE074E080EA98E090
:104640000E944EBD8091910D882381F29EC184E02D
:1046500096E39F938F931F922F9282E88F9388EB1C
:104660008F931F9284E68F938AE094E09F938F93B9
:10467000BF92AF929F928F924F9281E0C43009F027
:1046800080E08F930E94BABC8DB79EB740960FB65C
:10469000F8949EBF0FBE8DBFADCFD53009F043C09B
:1046A0008091190C811106C080913A02882309F487
:1046B000A1CF13C0C530C1F704E016E324E630E013
:1046C00040E050E06EE074E08BE898E00E944EBD60
:1046D0008091910D882341F358C184E096E39F9324
:1046E0008F931F922F9282E88F9388EB8F931F9264
:1046F00084E68F938EE094E09F938F93FF92EF92E6
:10470000DF92CF924F9281E0C53009F080E08F9325
:104710000E94BABC8DB79EB740960FB6F8949EBF64
:104720000FBE8DBF67CFD63009F045C08091190C00
:10473000811106C080913A02882309F45BCF13C02F
:10474000C630C1F704E016E32AE030E040E050E074
:1047500062E174E086E798E00E944EBD8091910D81
:10476000882341F312C184E096E39F938F931F92B5
:104770002F9282E88F9388EB8F931F928AE08F931A
:1047800082E194E09F938F937F926F928FE698E0FF
:104790009F938F934F9281E0C63009F080E08F9312
:1047A0000E94BABC8DB79EB740960FB6F8949EBFD4
:1047B0000FBE8DBF1FCFD73009F053C08091190CA9
:1047C000811106C080913A02882309F413CF19C0E1
:1047D000C730C1F760913D0C94E0699FB00111248E
:1047E0006A5E7B4F04E016E324E630E040E050E0F0
:1047F00081E698E00E944EBD8091910D882311F3CF
:10480000C4C084E096E39F938F931F922F9282E817
:104810008F9388EB8F931F9284E68F9380913D0C4A
:1048200024E0829FC00111248A5E9B4F9F938F9347
:1048300083E598E09F938F938AE598E09F938F9309
:104840004F9281E0C73009F080E08F930E94BABC9C
:104850008DB79EB740960FB6F8949EBF0FBE8DBF22
:10486000C9CED83009F047C08091190C811106C01B
:1048700080913A02882309F4BDCE13C0C830C1F735
:104880000EEF15E324E630E040E050E066E174E02E
:104890008BE498E00E944EBD8091910D882341F3F6
:1048A00074C08EEF95E39F938F931F922F9282E8AF
:1048B0008F9388EB8F931F9284E68F9386E194E029
:1048C0009F938F938BE398E09F938F9383E498E07B
:1048D0009F938F934F9281E0C83009F080E08F93CF
:1048E0000E94BABC8DB79EB740960FB6F8949EBF93
:1048F0000FBE8DBF7FCED93009F07CCE8091190CD0
:10490000811106C080913A02882309F473CE13C046
:10491000C930C1F708EF15E324E630E040E050E08D
:104920006AE174E083E398E00E944EBD8091910DAE
:10493000882341F32AC088EF95E39F938F931F92BA
:104940002F9282E88F9388EB8F931F9284E68F9348
:104950008AE194E09F938F9383E298E09F938F93F3
:104960008BE298E09F938F934F9281E0C93009F0DA
:1049700080E08F930E94BABC8DB79EB740960FB669
:10498000F8949EBF0FBE8DBF35CEDF91CF911F91A2
:104990000F91FF90EF90DF90CF90BF90AF909F90DE
:1049A0008F907F906F904F902F9008954F925F92CD
:1049B0006F927F928F929F92AF92BF92CF92DF922F
:1049C000EF92FF920F931F93CF93DF931092170CE8
:1049D0008091220E9091230EA091240EB091250E6D
:1049E00081309048A105B10540F01092220E10923E
:1049F000230E1092240E1092250EC091220E80914B
:104A000001071816DCF4282F082E000C330B215058
:104A100031094C2F0C2E000C550B4217530774F024
:104A2000CFEFC80F8C2F90E0A0E0B0E08093220E73
:104A30009093230EA093240EB093250E1092910D07
:104A40008091900DC81714F4C093900D8091900D33
:104A5000082E000C990B04962C2F0C2E000C330BF7
:104A60008217930724F48CEF8C0F8093900D509055
:104A7000900DD0E04424439465E4C62E6DE6D62E16
:104A800073EF872E75E3972EE5EF6E2EE5E37E2E0E
:104A9000F7EFAF2EF5E3BF2E51101DC08091190C1A
:104AA000811106C080913A02882309F4B6C009C07A
:104AB000C111F8CF0E9408888091910D882391F34D
:104AC000B8C181E0C11180E024E04BEB59E06D2FCB
:104AD0000E943542A2C081E0581241C08091190C59
:104AE000811106C080913A02882309F496C02AC039
:104AF000C130C1F7C093170C1092130C1092140C14
:104B00001092150C1092160CE12C1CE3F12E0CE106
:104B100016E420E030E040EA50E461EE73E081EB1F
:104B200099E00E94C4BAD0929102C0929002B092D1
:104B3000340EA092330E1092320E8091910D882384
:104B400089F277C181EE93E00E94B73E9C0181E03B
:104B5000C13009F080E000E047EA59E05BC022E0A4
:104B6000521241C08091190C811106C080913A0205
:104B7000882309F452C02AC0C230C1F74092170CF2
:104B80001092130C1092140C1092150C1092160C1B
:104B9000E12C1CE3F12E0CE116E420E030E040EAC9
:104BA00050E465EE73E08DE999E00E94C4BAD092BA
:104BB0009102C0929002B092340EA092330E1092E5
:104BC000320E8091910D882389F233C185EE93E0F6
:104BD0000E94B73E9C0181E0C23009F080E000E015
:104BE00043E959E017C083E058124BC08091190C7B
:104BF00081111CC080913A02882379F089EE93E0FC
:104C00000E94B73E9C0181E0C33009F080E000E0E3
:104C10004FE759E06D2F0E944ABCDF5F5394D530B7
:104C200009F03ACF87E08093010703C1C33011F741
:104C30004092170C1092130C1092140C1092150C39
:104C40001092160CE12C1CE3F12E0CE116E420E08E
:104C500030E040EA50E469EE73E089E899E00E94B0
:104C6000C4BAD0929102C0929002B092340EA09237
:104C7000330E1092320E8091910D882309F4BACF31
:104C8000D8C024E052124DC08091190C811106C089
:104C900080913A02882309F4C0CF30C0C430C1F7F4
:104CA0004092170C1092130C1092140C1092150CC9
:104CB0001092160C60913D0C84E0689FB0011124A5
:104CC00063517C4FE12C1CE3F12E0CE116E420E053
:104CD00030E040EA50E485E799E00E94C4BAD092FF
:104CE0009102C0929002B092340EA092330E1092B4
:104CF000320E8091910D882359F29BC080913D0C1A
:104D000024E0829FC001112483519C4F0E94B73E32
:104D10009C0181E0C43009F080E000E04BE659E0FE
:104D200079CF85E0581241C08091190C811106C0DD
:104D300080913A02882309F470CF2AC0C530C1F7A8
:104D40004092170C1092130C1092140C1092150C28
:104D50001092160CE12C1CE3F12E0CE116E420E07D
:104D600030E040EA50E46DEE73E080E699E00E94A6
:104D7000C4BAD0929102C09290027092340E6092A6
:104D8000330E1092320E8091910D882389F251C01A
:104D90008DEE93E00E94B73E9C0181E0C53009F0A2
:104DA00080E000E045E559E035CF26E0521235CFEE
:104DB0008091190C811106C080913A02882309F470
:104DC0002CCF2AC0C630C1F74092170C1092130C9A
:104DD0001092140C1092150C1092160CE12C1CE37E
:104DE000F12E0CE116E420E030E040EA50E461EFFF
:104DF00073E08AE499E00E94C4BAD0929102C09212
:104E000090029092340E8092330E1092320E809166
:104E1000910D882389F20DC081EF93E00E94B73E87
:104E20009C0181E0C63009F080E000E04FE359E0EA
:104E3000F1CEDF91CF911F910F91FF90EF90DF9016
:104E4000CF90BF90AF909F908F907F906F905F902A
:104E50004F9008952F923F924F925F926F927F9260
:104E60008F929F92AF92BF92CF92DF92EF92FF927A
:104E70000F931F93CF93DF931092170C8091220E04
:104E80009091230EA091240EB091250E8130904870
:104E9000A105B10540F01092220E1092230E10923F
:104EA000240E1092250EC091220E80910007181634
:104EB000DCF4282F082E000C330B215031094C2F25
:104EC0000C2E000C550B4217530774F0CFEFC80F90
:104ED0008C2F90E0A0E0B0E08093220E9093230E00
:104EE000A093240EB093250E1092910D8091900DF9
:104EF000C81714F4C093900D8091900D082E000CEB
:104F0000990B04962C2F0C2E000C330B8217930751
:104F100024F48CEF8C0F8093900D5090900DD0E086
:104F200043E0442E5EED352E2224239468E0C62E05
:104F300069E0D62E70E1A72E79E0B72EE0E28E2E42
:104F4000E9E09E2EF8E26F2EF9E07F2E51101DC091
:104F50008091190C811106C080913A02882309F4CE
:104F60009FC009C0C111F8CF0E9408888091910D9F
:104F7000882391F30CC181E0C11180E024E048E373
:104F800059E06D2F0E9435428BC081E058123DC020
:104F90008091190C811106C080913A02882309F48E
:104FA0007FC016C0C130C1F7E12C10E8F12E07E731
:104FB00014E420E030E040E85FE36EE374E080E377
:104FC00099E00E9487BB8091910D882329F3DFC06F
:104FD0004F923F921F922F928EE394E09F938F9374
:104FE0009F928F927F926F92DF9381E0C13009F0A0
:104FF00080E08F930E94DFBC8DB79EB70C960FB6F2
:10500000F8949EBF0FBE8DBF4BC092E059123DC0B9
:105010008091190C811106C080913A02882309F40D
:105020003FC016C0C230C1F7E12C10E8F12E07E7EF
:1050300014E420E030E040E85FE362E474E088E1FB
:1050400099E00E9487BB8091910D882329F39FC02E
:105050004F923F921F922F9282E494E09F938F93FE
:10506000DF92CF92BF92AF92DF9381E0C23009F01E
:1050700080E08F930E94DFBC8DB79EB70C960FB671
:10508000F8949EBF0FBE8DBF0BC093E059123CC079
:105090008091190C81110CC080913A02811124C0B9
:1050A000DF5F5394D53009F051CFD09300076FC024
:1050B000C33091F7E12C10E8F12E07E714E42DEC52
:1050C0003CEC4CEC5DE366E474E080E099E00E9427
:1050D000C4BA86EB9AE690939102809390028091F5
:1050E000910D8823C9F253C086E494E00E946C3F7E
:1050F0009C0181E0C33009F080E000E048EF58E017
:105100006D2F0E944ABCCCCF24E05212C9CF8091AF
:10511000190C811105C080913A02882309F216C04A
:10512000C430C9F7E12C10E8F12E07E714E420E0C1
:1051300030E040E85FE36AE474E080EF98E00E94CA
:1051400087BB8091910D882331F321C04F923F920C
:105150001F922F928AE494E09F938F9380EE98E0C1
:105160009F938F9388EE98E09F938F93DF9381E0D6
:10517000C43009F080E08F930E94DFBC8DB79EB7EA
:105180000C960FB6F8949EBF0FBE8DBF89CFDF91EE
:10519000CF911F910F91FF90EF90DF90CF90BF9034
:1051A000AF909F908F907F906F905F904F903F90C7
:1051B0002F9008958091090780FF03C089988FEF91
:1051C00002C0899A81E0809320028091090781FFC3
:1051D00003C08F9A8FEF02C08F9881E080932102E5
:1051E000809109079FB782FF09C0F89480910B0155
:1051F0008D7F80930B019FBF8FEF08C0F894809143
:105200000B01826080930B019FBF81E0809322029B
:1052100080910907E0913C0FF0913D0F83FF08C09A
:105220008181811102C0169801C0439A8FEF07C097
:105230008181811102C0169A01C0439881E0809358
:10524000230208951F920F920FB60F9211240BB6EE
:105250000F92BF92CF92DF92EF92FF920F931F9324
:105260002F933F934F935F936F937F938F939F936E
:10527000AF93BF93EF93FF93CF93DF9300D000D012
:10528000CDB7DEB780916E008B7F80936E008091EA
:105290006F008D7F80936F007894C090F80BD09052
:1052A000F90BE090FA0BF090FB0BC114D104E10470
:1052B000F104B1F18091CF0C882391F10E944AA4AE
:1052C000D701C60109EBC0160BE0D006E104F104DA
:1052D00020F088EB9BE0A0E0B0E0C81AD90AEA0A07
:1052E000FB0AC092F80BD092F90BE092FA0BF09205
:1052F000FB0B909389008093880020918800309167
:105300008900809184009091850040962817390784
:1053100008F074C6809184009091850040960BC27D
:1053200080913E0F90913F0F0097E9F197FF21C0C8
:1053300080913C0F90913D0F892B51F00E94A41851
:10534000882331F08091CD0C8F5F8F708093CD0CCE
:105350000E94A418882309F492C6E091CD0C1DE4A4
:10536000E19FF0011124E65FF84F808184FD7BC648
:1053700086C60E94A418882331F08091CD0C8F5FDF
:105380008F708093CD0C80913E0F90913F0F0197CD
:1053900090933F0F80933E0F10923D0F10923C0F61
:1053A00088EC90E0C8C100913C0F10913D0F1A832A
:1053B0000983012B09F0C4C10E94A418882351F16C
:1053C0001091CD0C4DE4149F90011124265F384FAD
:1053D0003A83298380910E0C90910F0CA091100CB0
:1053E000B091110CF901E75BFF4F4081518162815F
:1053F0007381841B950BA60BB70B80930E0C9093B7
:105400000F0CA093100CB093110CD9018C918860F3
:105410008C930BC08FB7F89410920E0C10920F0C57
:105420001092100C1092110C8FBF09811A811093E9
:105430003D0F00933C0F0115110509F47AC1D80105
:1054400092965C9192978091090711964C9158130E
:105450000AC0242F30E080912402082E000C990B02
:105460002817390729F05093090740932402A2DE38
:105470001092F40B1092F50B1092F60B1092F70BA2
:10548000E0913C0FF0913D0F87A990AD8134BCE9CC
:105490009B0728F48132EEE49E0748F002C080E4C6
:1054A0009CE9969587959695879524E007C081316C
:1054B000F7E29F0730F09695879522E02093F30B53
:1054C00008C021E02093F30B8032910510F480E2B4
:1054D00090E08C01005211091A830983011528E01C
:1054E0001207D8F0E12FFF27EE0FFF1FEE0FFF1F6F
:1054F000CF01855B914FFC01329645915491AA27CB
:10550000059F9001049F210D3A1F06942A1F3A1F00
:105510001124FC01859194911FC089819A819695EF
:1055200087958C7F855B954FFC0145915491FC01DB
:1055300032968591949169817A8167707727689F07
:105540009001699F300D789F300D112483E03695CE
:1055500027958A95E1F7CA01821B930B8436910542
:1055600080F40FEF12E0D8018D918D01882319F09E
:105570000E94931AF8CF89819A810E94555B84E634
:1055800090E09093F20B8093F10B8091F30B80935A
:10559000F00BE0913C0FF0913D0F83AD94AD9093F3
:1055A000EF0B8093EE0B8134BCE99B0728F481322A
:1055B000EEE49E0748F002C080E49CE9969587954A
:1055C0009695879524E007C08131F7E29F0730F078
:1055D0009695879522E02093F30B08C021E0209355
:1055E000F30B8032910510F480E290E08C010052C0
:1055F00011091A830983011528E01207D8F0E12F59
:10560000FF27EE0FFF1FEE0FFF1FCF01855B914FAE
:10561000FC01329645915491AA27059F9001049F61
:10562000210D3A1F06942A1F3A1F1124FC0185916F
:1056300094911FC089819A81969587958C7F855B0F
:10564000954FFC0145915491FC01329685919491BE
:1056500069817A8167707727689F9001699F300D13
:10566000789F300D112463E0369527956A95E1F710
:10567000CA01821B930B8436910580F40FEF12E070
:10568000D8018D918D01882319F00E94931AF8CFCB
:1056900089819A810E94555B84E690E0AC0160E0CC
:1056A00070E04093EA0B5093EB0B6093EC0B70931C
:1056B000ED0B9093890080938800E0913C0FF0916E
:1056C0003D0F82899389A489B589B695A795979549
:1056D0008795B095A095909581959F4FAF4FBF4FFF
:1056E0008093E60B9093E70BA093E80BB093E90B44
:1056F0008093E20B9093E30BA093E40BB093E50B44
:105700008093DE0B9093DF0BA093E00BB093E10B43
:105710008093DA0B9093DB0BA093DC0BB093DD0B43
:105720001092380F1092390F10923A0F10923B0FCF
:1057300007C080ED97E090938900809388005EC455
:105740008091CF0C81110E944AA42091F30B222357
:1057500009F4B9C1E0913C0FF0913D0F42815381B2
:10576000648175818091DA0B9091DB0BA091DC0B49
:10577000B091DD0B840F951FA61FB71F8093DA0B26
:105780009093DB0BA093DC0BB093DD0B181619067E
:105790001A061B060CF4889AE0913C0FF0913D0F1D
:1057A00046815781608571858091DE0B9091DF0B7A
:1057B000A091E00BB091E10B840F951FA61FB71FBE
:1057C0008093DE0B9093DF0BA093E00BB093E10B83
:1057D000181619061A061B060CF48E9AE0913C0F57
:1057E000F0913D0F42855385648575858091E20B6C
:1057F0009091E30BA091E40BB091E50B840F951F02
:10580000A61FB71F8093E20B9093E30BA093E40BCA
:10581000B093E50B181619061A061B0644F49FB739
:10582000F89480910B01886080930B019FBFE091F9
:105830003C0FF0913D0F46855785608971898091B5
:10584000E60B9091E70BA091E80BB091E90B840F68
:10585000951FA61FB71F8093E60B9093E70BA093AD
:10586000E80BB093E90B181619061A061B0634F458
:105870008181811102C0149A01C0419A8091DA0B92
:105880009091DB0BA091DC0BB091DD0B1816190683
:105890001A061B0684F5E0913C0FF0913D0F4289FA
:1058A000538964897589841B950BA60BB70B80936C
:1058B000DA0B9093DB0BA093DC0BB093DD0B8091A4
:1058C00020024091400F5091410F6091420F709122
:1058D000430F082E000C990BAA0BBB0B840F951FCE
:1058E000A61FB71F8093400F9093410FA093420FC4
:1058F000B093430F88988091DE0B9091DF0BA091BD
:10590000E00BB091E10B181619061A061B0684F578
:10591000E0913C0FF0913D0F42895389648975896C
:10592000841B950BA60BB70B8093DE0B9093DF0BBC
:10593000A093E00BB093E10B809121024091440FC2
:105940005091450F6091460F7091470F082E000C43
:10595000990BAA0BBB0B840F951FA61FB71F809333
:10596000440F9093450FA093460FB093470F8E9826
:105970008091E20B9091E30BA091E40BB091E50BC9
:10598000181619061A061B06BCF5E0913C0FF0919B
:105990003D0F4289538964897589841B950BA60B39
:1059A000B70B8093E20B9093E30BA093E40BB093BF
:1059B000E50B809122024091480F5091490F609170
:1059C0004A0F70914B0F082E000C990BAA0BBB0BC2
:1059D000840F951FA61FB71F8093480F9093490F00
:1059E000A0934A0FB0934B0F9FB7F89480910B018F
:1059F000877F80930B019FBF8091E60B9091E70B0F
:105A0000A091E80BB091E90B181619061A061B06AF
:105A1000ACF5E0913C0FF0913D0F428953896489C8
:105A20007589841B950BA60BB70B8093E60B90939F
:105A3000E70BA093E80BB093E90B80912302409110
:105A40004C0F50914D0F60914E0F70914F0F082EDB
:105A5000000C990BAA0BBB0B840F951FA61FB71F39
:105A600080934C0F90934D0FA0934E0FB0934F0F18
:105A70008181811102C0149801C041988091380F32
:105A80009091390FA0913A0FB0913B0F0196A11D53
:105A9000B11D8093380F9093390FA0933A0FB093B4
:105AA0003B0F2150E0913C0FF0913D0F428953890B
:105AB0006489758984179507A607B70708F447CE48
:105AC000BB24B39401C0B12CE0913C0FF0913D0F89
:105AD0008091380F9091390FA0913A0FB0913B0F00
